{
  "_format": "hh-sol-artifact-1",
  "contractName": "OutcomeToken1155",
  "sourceName": "contracts/tokens/OutcomeToken1155.sol",
  "abi": [
    {
      "inputs": [
        {
          "internalType": "string",
          "name": "uri_",
          "type": "string"
        }
      ],
      "stateMutability": "nonpayable",
      "type": "constructor"
    },
    {
      "inputs": [],
      "name": "AccessControlBadConfirmation",
      "type": "error"
    },
    {
      "inputs": [
        {
          "internalType": "address",
          "name": "account",
          "type": "address"
        },
        {
          "internalType": "bytes32",
          "name": "neededRole",
          "type": "bytes32"
        }
      ],
      "name": "AccessControlUnauthorizedAccount",
      "type": "error"
    },
    {
      "inputs": [
        {
          "internalType": "address",
          "name": "sender",
          "type": "address"
        },
        {
          "internalType": "uint256",
          "name": "balance",
          "type": "uint256"
        },
        {
          "internalType": "uint256",
          "name": "needed",
          "type": "uint256"
        },
        {
          "internalType": "uint256",
          "name": "tokenId",
          "type": "uint256"
        }
      ],
      "name": "ERC1155InsufficientBalance",
      "type": "error"
    },
    {
      "inputs": [
        {
          "internalType": "address",
          "name": "approver",
          "type": "address"
        }
      ],
      "name": "ERC1155InvalidApprover",
      "type": "error"
    },
    {
      "inputs": [
        {
          "internalType": "uint256",
          "name": "idsLength",
          "type": "uint256"
        },
        {
          "internalType": "uint256",
          "name": "valuesLength",
          "type": "uint256"
        }
      ],
      "name": "ERC1155InvalidArrayLength",
      "type": "error"
    },
    {
      "inputs": [
        {
          "internalType": "address",
          "name": "operator",
          "type": "address"
        }
      ],
      "name": "ERC1155InvalidOperator",
      "type": "error"
    },
    {
      "inputs": [
        {
          "internalType": "address",
          "name": "receiver",
          "type": "address"
        }
      ],
      "name": "ERC1155InvalidReceiver",
      "type": "error"
    },
    {
      "inputs": [
        {
          "internalType": "address",
          "name": "sender",
          "type": "address"
        }
      ],
      "name": "ERC1155InvalidSender",
      "type": "error"
    },
    {
      "inputs": [
        {
          "internalType": "address",
          "name": "operator",
          "type": "address"
        },
        {
          "internalType": "address",
          "name": "owner",
          "type": "address"
        }
      ],
      "name": "ERC1155MissingApprovalForAll",
      "type": "error"
    },
    {
      "anonymous": false,
      "inputs": [
        {
          "indexed": true,
          "internalType": "address",
          "name": "account",
          "type": "address"
        },
        {
          "indexed": true,
          "internalType": "address",
          "name": "operator",
          "type": "address"
        },
        {
          "indexed": false,
          "internalType": "bool",
          "name": "approved",
          "type": "bool"
        }
      ],
      "name": "ApprovalForAll",
      "type": "event"
    },
    {
      "anonymous": false,
      "inputs": [
        {
          "indexed": true,
          "internalType": "bytes32",
          "name": "role",
          "type": "bytes32"
        },
        {
          "indexed": true,
          "internalType": "bytes32",
          "name": "previousAdminRole",
          "type": "bytes32"
        },
        {
          "indexed": true,
          "internalType": "bytes32",
          "name": "newAdminRole",
          "type": "bytes32"
        }
      ],
      "name": "RoleAdminChanged",
      "type": "event"
    },
    {
      "anonymous": false,
      "inputs": [
        {
          "indexed": true,
          "internalType": "bytes32",
          "name": "role",
          "type": "bytes32"
        },
        {
          "indexed": true,
          "internalType": "address",
          "name": "account",
          "type": "address"
        },
        {
          "indexed": true,
          "internalType": "address",
          "name": "sender",
          "type": "address"
        }
      ],
      "name": "RoleGranted",
      "type": "event"
    },
    {
      "anonymous": false,
      "inputs": [
        {
          "indexed": true,
          "internalType": "bytes32",
          "name": "role",
          "type": "bytes32"
        },
        {
          "indexed": true,
          "internalType": "address",
          "name": "account",
          "type": "address"
        },
        {
          "indexed": true,
          "internalType": "address",
          "name": "sender",
          "type": "address"
        }
      ],
      "name": "RoleRevoked",
      "type": "event"
    },
    {
      "anonymous": false,
      "inputs": [
        {
          "indexed": true,
          "internalType": "address",
          "name": "operator",
          "type": "address"
        },
        {
          "indexed": true,
          "internalType": "address",
          "name": "from",
          "type": "address"
        },
        {
          "indexed": true,
          "internalType": "address",
          "name": "to",
          "type": "address"
        },
        {
          "indexed": false,
          "internalType": "uint256[]",
          "name": "ids",
          "type": "uint256[]"
        },
        {
          "indexed": false,
          "internalType": "uint256[]",
          "name": "values",
          "type": "uint256[]"
        }
      ],
      "name": "TransferBatch",
      "type": "event"
    },
    {
      "anonymous": false,
      "inputs": [
        {
          "indexed": true,
          "internalType": "address",
          "name": "operator",
          "type": "address"
        },
        {
          "indexed": true,
          "internalType": "address",
          "name": "from",
          "type": "address"
        },
        {
          "indexed": true,
          "internalType": "address",
          "name": "to",
          "type": "address"
        },
        {
          "indexed": false,
          "internalType": "uint256",
          "name": "id",
          "type": "uint256"
        },
        {
          "indexed": false,
          "internalType": "uint256",
          "name": "value",
          "type": "uint256"
        }
      ],
      "name": "TransferSingle",
      "type": "event"
    },
    {
      "anonymous": false,
      "inputs": [
        {
          "indexed": false,
          "internalType": "string",
          "name": "value",
          "type": "string"
        },
        {
          "indexed": true,
          "internalType": "uint256",
          "name": "id",
          "type": "uint256"
        }
      ],
      "name": "URI",
      "type": "event"
    },
    {
      "inputs": [],
      "name": "DEFAULT_ADMIN_ROLE",
      "outputs": [
        {
          "internalType": "bytes32",
          "name": "",
          "type": "bytes32"
        }
      ],
      "stateMutability": "view",
      "type": "function"
    },
    {
      "inputs": [],
      "name": "MINTER_ROLE",
      "outputs": [
        {
          "internalType": "bytes32",
          "name": "",
          "type": "bytes32"
        }
      ],
      "stateMutability": "view",
      "type": "function"
    },
    {
      "inputs": [
        {
          "internalType": "address",
          "name": "account",
          "type": "address"
        },
        {
          "internalType": "uint256",
          "name": "id",
          "type": "uint256"
        }
      ],
      "name": "balanceOf",
      "outputs": [
        {
          "internalType": "uint256",
          "name": "",
          "type": "uint256"
        }
      ],
      "stateMutability": "view",
      "type": "function"
    },
    {
      "inputs": [
        {
          "internalType": "address[]",
          "name": "accounts",
          "type": "address[]"
        },
        {
          "internalType": "uint256[]",
          "name": "ids",
          "type": "uint256[]"
        }
      ],
      "name": "balanceOfBatch",
      "outputs": [
        {
          "internalType": "uint256[]",
          "name": "",
          "type": "uint256[]"
        }
      ],
      "stateMutability": "view",
      "type": "function"
    },
    {
      "inputs": [
        {
          "internalType": "address",
          "name": "from",
          "type": "address"
        },
        {
          "internalType": "uint256",
          "name": "id",
          "type": "uint256"
        },
        {
          "internalType": "uint256",
          "name": "amount",
          "type": "uint256"
        }
      ],
      "name": "burn",
      "outputs": [],
      "stateMutability": "nonpayable",
      "type": "function"
    },
    {
      "inputs": [
        {
          "internalType": "address",
          "name": "from",
          "type": "address"
        },
        {
          "internalType": "uint256[]",
          "name": "ids",
          "type": "uint256[]"
        },
        {
          "internalType": "uint256[]",
          "name": "amounts",
          "type": "uint256[]"
        }
      ],
      "name": "burnBatch",
      "outputs": [],
      "stateMutability": "nonpayable",
      "type": "function"
    },
    {
      "inputs": [
        {
          "internalType": "address",
          "name": "market",
          "type": "address"
        },
        {
          "internalType": "uint256",
          "name": "outcomeIndex",
          "type": "uint256"
        }
      ],
      "name": "computeTokenId",
      "outputs": [
        {
          "internalType": "uint256",
          "name": "",
          "type": "uint256"
        }
      ],
      "stateMutability": "pure",
      "type": "function"
    },
    {
      "inputs": [
        {
          "internalType": "bytes32",
          "name": "role",
          "type": "bytes32"
        }
      ],
      "name": "getRoleAdmin",
      "outputs": [
        {
          "internalType": "bytes32",
          "name": "",
          "type": "bytes32"
        }
      ],
      "stateMutability": "view",
      "type": "function"
    },
    {
      "inputs": [
        {
          "internalType": "address",
          "name": "minter",
          "type": "address"
        }
      ],
      "name": "grantMinter",
      "outputs": [],
      "stateMutability": "nonpayable",
      "type": "function"
    },
    {
      "inputs": [
        {
          "internalType": "bytes32",
          "name": "role",
          "type": "bytes32"
        },
        {
          "internalType": "address",
          "name": "account",
          "type": "address"
        }
      ],
      "name": "grantRole",
      "outputs": [],
      "stateMutability": "nonpayable",
      "type": "function"
    },
    {
      "inputs": [
        {
          "internalType": "bytes32",
          "name": "role",
          "type": "bytes32"
        },
        {
          "internalType": "address",
          "name": "account",
          "type": "address"
        }
      ],
      "name": "hasRole",
      "outputs": [
        {
          "internalType": "bool",
          "name": "",
          "type": "bool"
        }
      ],
      "stateMutability": "view",
      "type": "function"
    },
    {
      "inputs": [
        {
          "internalType": "address",
          "name": "account",
          "type": "address"
        },
        {
          "internalType": "address",
          "name": "operator",
          "type": "address"
        }
      ],
      "name": "isApprovedForAll",
      "outputs": [
        {
          "internalType": "bool",
          "name": "",
          "type": "bool"
        }
      ],
      "stateMutability": "view",
      "type": "function"
    },
    {
      "inputs": [
        {
          "internalType": "address",
          "name": "to",
          "type": "address"
        },
        {
          "internalType": "uint256",
          "name": "id",
          "type": "uint256"
        },
        {
          "internalType": "uint256",
          "name": "amount",
          "type": "uint256"
        }
      ],
      "name": "mint",
      "outputs": [],
      "stateMutability": "nonpayable",
      "type": "function"
    },
    {
      "inputs": [
        {
          "internalType": "address",
          "name": "to",
          "type": "address"
        },
        {
          "internalType": "uint256[]",
          "name": "ids",
          "type": "uint256[]"
        },
        {
          "internalType": "uint256[]",
          "name": "amounts",
          "type": "uint256[]"
        }
      ],
      "name": "mintBatch",
      "outputs": [],
      "stateMutability": "nonpayable",
      "type": "function"
    },
    {
      "inputs": [
        {
          "internalType": "bytes32",
          "name": "role",
          "type": "bytes32"
        },
        {
          "internalType": "address",
          "name": "callerConfirmation",
          "type": "address"
        }
      ],
      "name": "renounceRole",
      "outputs": [],
      "stateMutability": "nonpayable",
      "type": "function"
    },
    {
      "inputs": [
        {
          "internalType": "address",
          "name": "minter",
          "type": "address"
        }
      ],
      "name": "revokeMinter",
      "outputs": [],
      "stateMutability": "nonpayable",
      "type": "function"
    },
    {
      "inputs": [
        {
          "internalType": "bytes32",
          "name": "role",
          "type": "bytes32"
        },
        {
          "internalType": "address",
          "name": "account",
          "type": "address"
        }
      ],
      "name": "revokeRole",
      "outputs": [],
      "stateMutability": "nonpayable",
      "type": "function"
    },
    {
      "inputs": [
        {
          "internalType": "address",
          "name": "from",
          "type": "address"
        },
        {
          "internalType": "address",
          "name": "to",
          "type": "address"
        },
        {
          "internalType": "uint256[]",
          "name": "ids",
          "type": "uint256[]"
        },
        {
          "internalType": "uint256[]",
          "name": "values",
          "type": "uint256[]"
        },
        {
          "internalType": "bytes",
          "name": "data",
          "type": "bytes"
        }
      ],
      "name": "safeBatchTransferFrom",
      "outputs": [],
      "stateMutability": "nonpayable",
      "type": "function"
    },
    {
      "inputs": [
        {
          "internalType": "address",
          "name": "from",
          "type": "address"
        },
        {
          "internalType": "address",
          "name": "to",
          "type": "address"
        },
        {
          "internalType": "uint256",
          "name": "id",
          "type": "uint256"
        },
        {
          "internalType": "uint256",
          "name": "value",
          "type": "uint256"
        },
        {
          "internalType": "bytes",
          "name": "data",
          "type": "bytes"
        }
      ],
      "name": "safeTransferFrom",
      "outputs": [],
      "stateMutability": "nonpayable",
      "type": "function"
    },
    {
      "inputs": [
        {
          "internalType": "address",
          "name": "operator",
          "type": "address"
        },
        {
          "internalType": "bool",
          "name": "approved",
          "type": "bool"
        }
      ],
      "name": "setApprovalForAll",
      "outputs": [],
      "stateMutability": "nonpayable",
      "type": "function"
    },
    {
      "inputs": [
        {
          "internalType": "string",
          "name": "newuri",
          "type": "string"
        }
      ],
      "name": "setURI",
      "outputs": [],
      "stateMutability": "nonpayable",
      "type": "function"
    },
    {
      "inputs": [
        {
          "internalType": "bytes4",
          "name": "interfaceId",
          "type": "bytes4"
        }
      ],
      "name": "supportsInterface",
      "outputs": [
        {
          "internalType": "bool",
          "name": "",
          "type": "bool"
        }
      ],
      "stateMutability": "view",
      "type": "function"
    },
    {
      "inputs": [
        {
          "internalType": "uint256",
          "name": "",
          "type": "uint256"
        }
      ],
      "name": "uri",
      "outputs": [
        {
          "internalType": "string",
          "name": "",
          "type": "string"
        }
      ],
      "stateMutability": "view",
      "type": "function"
    }
  ],
  "bytecode": "0x60806040523480156200001157600080fd5b5060405162001e1138038062001e11833981016040819052620000349162000131565b80620000408162000056565b506200004e60003362000068565b505062000363565b600262000064828262000297565b5050565b60008281526003602090815260408083206001600160a01b038516845290915281205460ff16620001115760008381526003602090815260408083206001600160a01b03861684529091529020805460ff19166001179055620000c83390565b6001600160a01b0316826001600160a01b0316847f2f8788117e7eff1d82e926ec794901d17c78024a50270940304540a733656f0d60405160405180910390a450600162000115565b5060005b92915050565b634e487b7160e01b600052604160045260246000fd5b600060208083850312156200014557600080fd5b82516001600160401b03808211156200015d57600080fd5b818501915085601f8301126200017257600080fd5b8151818111156200018757620001876200011b565b604051601f8201601f19908116603f01168101908382118183101715620001b257620001b26200011b565b816040528281528886848701011115620001cb57600080fd5b600093505b82841015620001ef5784840186015181850187015292850192620001d0565b600086848301015280965050505050505092915050565b600181811c908216806200021b57607f821691505b6020821081036200023c57634e487b7160e01b600052602260045260246000fd5b50919050565b601f82111562000292576000816000526020600020601f850160051c810160208610156200026d5750805b601f850160051c820191505b818110156200028e5782815560010162000279565b5050505b505050565b81516001600160401b03811115620002b357620002b36200011b565b620002cb81620002c4845462000206565b8462000242565b602080601f831160018114620003035760008415620002ea5750858301515b600019600386901b1c1916600185901b1785556200028e565b600085815260208120601f198616915b82811015620003345788860151825594840194600190910190840162000313565b5085821015620003535787850151600019600388901b60f8161c191681555b5050505050600190811b01905550565b611a9e80620003736000396000f3fe608060405234801561001057600080fd5b506004361061014c5760003560e01c80636b20c454116100c3578063d53913931161007c578063d5391393146102ea578063d547741f146102ff578063d81d0a1514610312578063e985e9c514610325578063f242432a14610338578063f5298aca1461034b57600080fd5b80636b20c4541461027157806384a7cf3c1461028457806391d14854146102a9578063a217fddf146102bc578063a22cb465146102c4578063cfbd4885146102d757600080fd5b8063248a9ca311610115578063248a9ca3146101e2578063261707fa146102055780632eb2c2d6146102185780632f2ff15d1461022b57806336568abe1461023e5780634e1273f41461025157600080fd5b8062fdd58e1461015157806301ffc9a71461017757806302fe53051461019a5780630e89341c146101af578063156e29f6146101cf575b600080fd5b61016461015f36600461119d565b61035e565b6040519081526020015b60405180910390f35b61018a6101853660046111dd565b610386565b604051901515815260200161016e565b6101ad6101a83660046112a0565b610391565b005b6101c26101bd3660046112f1565b6103a9565b60405161016e9190611350565b6101ad6101dd366004611363565b61043d565b6101646101f03660046112f1565b60009081526003602052604090206001015490565b6101ad610213366004611396565b610476565b6101ad610226366004611464565b61049e565b6101ad61023936600461150e565b61050a565b6101ad61024c36600461150e565b61052f565b61026461025f36600461153a565b610562565b60405161016e9190611636565b6101ad61027f366004611695565b61062f565b61016461029236600461119d565b60209190911b640100000000600160c01b03161790565b61018a6102b736600461150e565b6106b5565b610164600081565b6101ad6102d2366004611716565b6106e0565b6101ad6102e5366004611396565b6106eb565b610164600080516020611a4983398151915281565b6101ad61030d36600461150e565b61070e565b6101ad610320366004611695565b610733565b61018a610333366004611752565b6107c7565b6101ad61034636600461177c565b6107f5565b6101ad610359366004611363565b610854565b6000818152602081815260408083206001600160a01b03861684529091529020545b92915050565b600061038082610877565b600061039c8161089c565b6103a5826108a9565b5050565b6060600280546103b8906117e1565b80601f01602080910402602001604051908101604052809291908181526020018280546103e4906117e1565b80156104315780601f1061040657610100808354040283529160200191610431565b820191906000526020600020905b81548152906001019060200180831161041457829003601f168201915b50505050509050919050565b600080516020611a498339815191526104558161089c565b610470848484604051806020016040528060008152506108b5565b50505050565b60006104818161089c565b610499600080516020611a4983398151915283610912565b505050565b336001600160a01b03861681148015906104bf57506104bd86826107c7565b155b156104f55760405163711bec9160e11b81526001600160a01b038083166004830152871660248201526044015b60405180910390fd5b61050286868686866109a6565b505050505050565b6000828152600360205260409020600101546105258161089c565b6104708383610912565b6001600160a01b03811633146105585760405163334bd91960e11b815260040160405180910390fd5b6104998282610a0d565b606081518351146105935781518351604051635b05999160e01b8152600481019290925260248201526044016104ec565b6000835167ffffffffffffffff8111156105af576105af611201565b6040519080825280602002602001820160405280156105d8578160200160208202803683370190505b50905060005b8451811015610627576020808202860101516106029060208084028701015161035e565b8282815181106106145761061461181b565b60209081029190910101526001016105de565b509392505050565b600080516020611a498339815191526106478161089c565b6105028686868080602002602001604051908101604052809392919081815260200183836020028082843760009201919091525050604080516020808a02828101820190935289825290935089925088918291850190849080828437600092019190915250610a7a92505050565b60009182526003602090815260408084206001600160a01b0393909316845291905290205460ff1690565b6103a5338383610ac0565b60006106f68161089c565b610499600080516020611a4983398151915283610a0d565b6000828152600360205260409020600101546107298161089c565b6104708383610a0d565b600080516020611a4983398151915261074b8161089c565b6105028686868080602002602001604051908101604052809392919081815260200183836020028082843760009201919091525050604080516020808a02828101820190935289825290935089925088918291850190849080828437600092018290525060408051602081019091529081529250610b56915050565b6001600160a01b03918216600090815260016020908152604080832093909416825291909152205460ff1690565b336001600160a01b0386168114801590610816575061081486826107c7565b155b156108475760405163711bec9160e11b81526001600160a01b038083166004830152871660248201526044016104ec565b6105028686868686610b8e565b600080516020611a4983398151915261086c8161089c565b610470848484610c1c565b60006001600160e01b03198216637965db0b60e01b1480610380575061038082610c84565b6108a68133610cd4565b50565b60026103a58282611879565b6001600160a01b0384166108df57604051632bfa23e760e11b8152600060048201526024016104ec565b60408051600180825260208201869052818301908152606082018590526080820190925290610502600087848487610d0d565b600061091e83836106b5565b61099e5760008381526003602090815260408083206001600160a01b03861684529091529020805460ff191660011790556109563390565b6001600160a01b0316826001600160a01b0316847f2f8788117e7eff1d82e926ec794901d17c78024a50270940304540a733656f0d60405160405180910390a4506001610380565b506000610380565b6001600160a01b0384166109d057604051632bfa23e760e11b8152600060048201526024016104ec565b6001600160a01b0385166109f957604051626a0d4560e21b8152600060048201526024016104ec565b610a068585858585610d0d565b5050505050565b6000610a1983836106b5565b1561099e5760008381526003602090815260408083206001600160a01b0386168085529252808320805460ff1916905551339286917ff6391f5c32d9c69d2a47ea670b442974b53935d1edc7fd64eb21e047a839171b9190a4506001610380565b6001600160a01b038316610aa357604051626a0d4560e21b8152600060048201526024016104ec565b610499836000848460405180602001604052806000815250610d0d565b6001600160a01b038216610ae95760405162ced3e160e81b8152600060048201526024016104ec565b6001600160a01b03838116600081815260016020908152604080832094871680845294825291829020805460ff191686151590811790915591519182527f17307eab39ab6107e8899845ad3d59bd9653f200f220920489ca2b5937696c31910160405180910390a3505050565b6001600160a01b038416610b8057604051632bfa23e760e11b8152600060048201526024016104ec565b610470600085858585610d0d565b6001600160a01b038416610bb857604051632bfa23e760e11b8152600060048201526024016104ec565b6001600160a01b038516610be157604051626a0d4560e21b8152600060048201526024016104ec565b60408051600180825260208201869052818301908152606082018590526080820190925290610c138787848487610d0d565b50505050505050565b6001600160a01b038316610c4557604051626a0d4560e21b8152600060048201526024016104ec565b604080516001808252602082018590528183019081526060820184905260a08201909252600060808201818152919291610a0691879185908590610d0d565b60006001600160e01b03198216636cdb3d1360e11b1480610cb557506001600160e01b031982166303a24d0760e21b145b8061038057506301ffc9a760e01b6001600160e01b0319831614610380565b610cde82826106b5565b6103a55760405163e2517d3f60e01b81526001600160a01b0382166004820152602481018390526044016104ec565b610d1985858585610d60565b6001600160a01b03841615610a065782513390600103610d525760208481015190840151610d4b838989858589610f74565b5050610502565b610502818787878787611098565b8051825114610d8f5781518151604051635b05999160e01b8152600481019290925260248201526044016104ec565b3360005b8351811015610e95576020818102858101820151908501909101516001600160a01b03881615610e46576000828152602081815260408083206001600160a01b038c16845290915290205481811015610e1f576040516303dee4c560e01b81526001600160a01b038a1660048201526024810182905260448101839052606481018490526084016104ec565b6000838152602081815260408083206001600160a01b038d16845290915290209082900390555b6001600160a01b03871615610e8b576000828152602081815260408083206001600160a01b038b16845290915281208054839290610e85908490611939565b90915550505b5050600101610d93565b508251600103610f165760208301516000906020840151909150856001600160a01b0316876001600160a01b0316846001600160a01b03167fc3d58168c5ae7397731d063d5bbf3d657854427343f4c083240f7aacaa2d0f628585604051610f07929190918252602082015260400190565b60405180910390a45050610a06565b836001600160a01b0316856001600160a01b0316826001600160a01b03167f4a39dc06d4c0dbc64b70af90fd698a233a518aa5d07e595d983b8c0526c8f7fb8686604051610f6592919061195a565b60405180910390a45050505050565b6001600160a01b0384163b156105025760405163f23a6e6160e01b81526001600160a01b0385169063f23a6e6190610fb89089908990889088908890600401611988565b6020604051808303816000875af1925050508015610ff3575060408051601f3d908101601f19168201909252610ff0918101906119cd565b60015b61105c573d808015611021576040519150601f19603f3d011682016040523d82523d6000602084013e611026565b606091505b50805160000361105457604051632bfa23e760e11b81526001600160a01b03861660048201526024016104ec565b805160208201fd5b6001600160e01b0319811663f23a6e6160e01b14610c1357604051632bfa23e760e11b81526001600160a01b03861660048201526024016104ec565b6001600160a01b0384163b156105025760405163bc197c8160e01b81526001600160a01b0385169063bc197c81906110dc90899089908890889088906004016119ea565b6020604051808303816000875af1925050508015611117575060408051601f3d908101601f19168201909252611114918101906119cd565b60015b611145573d808015611021576040519150601f19603f3d011682016040523d82523d6000602084013e611026565b6001600160e01b0319811663bc197c8160e01b14610c1357604051632bfa23e760e11b81526001600160a01b03861660048201526024016104ec565b80356001600160a01b038116811461119857600080fd5b919050565b600080604083850312156111b057600080fd5b6111b983611181565b946020939093013593505050565b6001600160e01b0319811681146108a657600080fd5b6000602082840312156111ef57600080fd5b81356111fa816111c7565b9392505050565b634e487b7160e01b600052604160045260246000fd5b604051601f8201601f1916810167ffffffffffffffff8111828210171561124057611240611201565b604052919050565b600067ffffffffffffffff83111561126257611262611201565b611275601f8401601f1916602001611217565b905082815283838301111561128957600080fd5b828260208301376000602084830101529392505050565b6000602082840312156112b257600080fd5b813567ffffffffffffffff8111156112c957600080fd5b8201601f810184136112da57600080fd5b6112e984823560208401611248565b949350505050565b60006020828403121561130357600080fd5b5035919050565b6000815180845260005b8181101561133057602081850181015186830182015201611314565b506000602082860101526020601f19601f83011685010191505092915050565b6020815260006111fa602083018461130a565b60008060006060848603121561137857600080fd5b61138184611181565b95602085013595506040909401359392505050565b6000602082840312156113a857600080fd5b6111fa82611181565b600067ffffffffffffffff8211156113cb576113cb611201565b5060051b60200190565b600082601f8301126113e657600080fd5b813560206113fb6113f6836113b1565b611217565b8083825260208201915060208460051b87010193508684111561141d57600080fd5b602086015b848110156114395780358352918301918301611422565b509695505050505050565b600082601f83011261145557600080fd5b6111fa83833560208501611248565b600080600080600060a0868803121561147c57600080fd5b61148586611181565b945061149360208701611181565b9350604086013567ffffffffffffffff808211156114b057600080fd5b6114bc89838a016113d5565b945060608801359150808211156114d257600080fd5b6114de89838a016113d5565b935060808801359150808211156114f457600080fd5b5061150188828901611444565b9150509295509295909350565b6000806040838503121561152157600080fd5b8235915061153160208401611181565b90509250929050565b6000806040838503121561154d57600080fd5b823567ffffffffffffffff8082111561156557600080fd5b818501915085601f83011261157957600080fd5b813560206115896113f6836113b1565b82815260059290921b840181019181810190898411156115a857600080fd5b948201945b838610156115cd576115be86611181565b825294820194908201906115ad565b965050860135925050808211156115e357600080fd5b506115f0858286016113d5565b9150509250929050565b60008151808452602080850194506020840160005b8381101561162b5781518752958201959082019060010161160f565b509495945050505050565b6020815260006111fa60208301846115fa565b60008083601f84011261165b57600080fd5b50813567ffffffffffffffff81111561167357600080fd5b6020830191508360208260051b850101111561168e57600080fd5b9250929050565b6000806000806000606086880312156116ad57600080fd5b6116b686611181565b9450602086013567ffffffffffffffff808211156116d357600080fd5b6116df89838a01611649565b909650945060408801359150808211156116f857600080fd5b5061170588828901611649565b969995985093965092949392505050565b6000806040838503121561172957600080fd5b61173283611181565b91506020830135801515811461174757600080fd5b809150509250929050565b6000806040838503121561176557600080fd5b61176e83611181565b915061153160208401611181565b600080600080600060a0868803121561179457600080fd5b61179d86611181565b94506117ab60208701611181565b93506040860135925060608601359150608086013567ffffffffffffffff8111156117d557600080fd5b61150188828901611444565b600181811c908216806117f557607f821691505b60208210810361181557634e487b7160e01b600052602260045260246000fd5b50919050565b634e487b7160e01b600052603260045260246000fd5b601f821115610499576000816000526020600020601f850160051c8101602086101561185a5750805b601f850160051c820191505b8181101561050257828155600101611866565b815167ffffffffffffffff81111561189357611893611201565b6118a7816118a184546117e1565b84611831565b602080601f8311600181146118dc57600084156118c45750858301515b600019600386901b1c1916600185901b178555610502565b600085815260208120601f198616915b8281101561190b578886015182559484019460019091019084016118ec565b50858210156119295787850151600019600388901b60f8161c191681555b5050505050600190811b01905550565b8082018082111561038057634e487b7160e01b600052601160045260246000fd5b60408152600061196d60408301856115fa565b828103602084015261197f81856115fa565b95945050505050565b6001600160a01b03868116825285166020820152604081018490526060810183905260a0608082018190526000906119c29083018461130a565b979650505050505050565b6000602082840312156119df57600080fd5b81516111fa816111c7565b6001600160a01b0386811682528516602082015260a060408201819052600090611a16908301866115fa565b8281036060840152611a2881866115fa565b90508281036080840152611a3c818561130a565b9897505050505050505056fe9f2df0fed2c77648de5860a4cc508cd0818c85b8b8a1ab4ceeef8d981c8956a6a26469706673582212205088c76e5d6471e61b46eb2d796c9b8d6da4aec79c35bd452c83d0fc3c1808ec64736f6c63430008180033",
  "linkReferences": {},
  "deployedLinkReferences": {}
}