{
  "_format": "hh-sol-artifact-1",
  "contractName": "BinaryMarket",
  "sourceName": "contracts/templates/BinaryMarket.sol",
  "abi": [
    {
      "inputs": [],
      "name": "AccessControlBadConfirmation",
      "type": "error"
    },
    {
      "inputs": [
        {
          "internalType": "address",
          "name": "account",
          "type": "address"
        },
        {
          "internalType": "bytes32",
          "name": "neededRole",
          "type": "bytes32"
        }
      ],
      "name": "AccessControlUnauthorizedAccount",
      "type": "error"
    },
    {
      "inputs": [],
      "name": "ReentrancyGuardReentrantCall",
      "type": "error"
    },
    {
      "anonymous": false,
      "inputs": [
        {
          "indexed": true,
          "internalType": "address",
          "name": "user",
          "type": "address"
        },
        {
          "indexed": false,
          "internalType": "uint256",
          "name": "collateralIn",
          "type": "uint256"
        },
        {
          "indexed": false,
          "internalType": "uint256",
          "name": "yesOut",
          "type": "uint256"
        },
        {
          "indexed": false,
          "internalType": "uint256",
          "name": "noOut",
          "type": "uint256"
        }
      ],
      "name": "DepositCompleteSet",
      "type": "event"
    },
    {
      "anonymous": false,
      "inputs": [
        {
          "indexed": true,
          "internalType": "address",
          "name": "oldRecipient",
          "type": "address"
        },
        {
          "indexed": true,
          "internalType": "address",
          "name": "newRecipient",
          "type": "address"
        }
      ],
      "name": "FeeRecipientUpdated",
      "type": "event"
    },
    {
      "anonymous": false,
      "inputs": [
        {
          "indexed": true,
          "internalType": "address",
          "name": "to",
          "type": "address"
        },
        {
          "indexed": false,
          "internalType": "uint256",
          "name": "amount",
          "type": "uint256"
        }
      ],
      "name": "FeesWithdrawn",
      "type": "event"
    },
    {
      "anonymous": false,
      "inputs": [
        {
          "indexed": false,
          "internalType": "int256",
          "name": "outcome",
          "type": "int256"
        }
      ],
      "name": "Finalized",
      "type": "event"
    },
    {
      "anonymous": false,
      "inputs": [
        {
          "indexed": false,
          "internalType": "address",
          "name": "factory",
          "type": "address"
        },
        {
          "indexed": false,
          "internalType": "address",
          "name": "creator",
          "type": "address"
        },
        {
          "indexed": false,
          "internalType": "address",
          "name": "collateral",
          "type": "address"
        },
        {
          "indexed": false,
          "internalType": "address",
          "name": "oracle",
          "type": "address"
        },
        {
          "indexed": false,
          "internalType": "uint256",
          "name": "feeBps",
          "type": "uint256"
        },
        {
          "indexed": false,
          "internalType": "uint256",
          "name": "resolutionTime",
          "type": "uint256"
        }
      ],
      "name": "Initialized",
      "type": "event"
    },
    {
      "anonymous": false,
      "inputs": [],
      "name": "MarketCanceled",
      "type": "event"
    },
    {
      "anonymous": false,
      "inputs": [
        {
          "indexed": true,
          "internalType": "address",
          "name": "user",
          "type": "address"
        },
        {
          "indexed": false,
          "internalType": "int256",
          "name": "outcome",
          "type": "int256"
        },
        {
          "indexed": false,
          "internalType": "uint256",
          "name": "tokenBurned",
          "type": "uint256"
        },
        {
          "indexed": false,
          "internalType": "uint256",
          "name": "collateralOut",
          "type": "uint256"
        }
      ],
      "name": "Redeem",
      "type": "event"
    },
    {
      "anonymous": false,
      "inputs": [
        {
          "indexed": true,
          "internalType": "bytes32",
          "name": "role",
          "type": "bytes32"
        },
        {
          "indexed": true,
          "internalType": "bytes32",
          "name": "previousAdminRole",
          "type": "bytes32"
        },
        {
          "indexed": true,
          "internalType": "bytes32",
          "name": "newAdminRole",
          "type": "bytes32"
        }
      ],
      "name": "RoleAdminChanged",
      "type": "event"
    },
    {
      "anonymous": false,
      "inputs": [
        {
          "indexed": true,
          "internalType": "bytes32",
          "name": "role",
          "type": "bytes32"
        },
        {
          "indexed": true,
          "internalType": "address",
          "name": "account",
          "type": "address"
        },
        {
          "indexed": true,
          "internalType": "address",
          "name": "sender",
          "type": "address"
        }
      ],
      "name": "RoleGranted",
      "type": "event"
    },
    {
      "anonymous": false,
      "inputs": [
        {
          "indexed": true,
          "internalType": "bytes32",
          "name": "role",
          "type": "bytes32"
        },
        {
          "indexed": true,
          "internalType": "address",
          "name": "account",
          "type": "address"
        },
        {
          "indexed": true,
          "internalType": "address",
          "name": "sender",
          "type": "address"
        }
      ],
      "name": "RoleRevoked",
      "type": "event"
    },
    {
      "anonymous": false,
      "inputs": [],
      "name": "TradingStarted",
      "type": "event"
    },
    {
      "inputs": [],
      "name": "ADMIN_ROLE",
      "outputs": [
        {
          "internalType": "bytes32",
          "name": "",
          "type": "bytes32"
        }
      ],
      "stateMutability": "view",
      "type": "function"
    },
    {
      "inputs": [],
      "name": "DEFAULT_ADMIN_ROLE",
      "outputs": [
        {
          "internalType": "bytes32",
          "name": "",
          "type": "bytes32"
        }
      ],
      "stateMutability": "view",
      "type": "function"
    },
    {
      "inputs": [],
      "name": "ORACLE_ROLE",
      "outputs": [
        {
          "internalType": "bytes32",
          "name": "",
          "type": "bytes32"
        }
      ],
      "stateMutability": "view",
      "type": "function"
    },
    {
      "inputs": [],
      "name": "accruedFees",
      "outputs": [
        {
          "internalType": "uint256",
          "name": "",
          "type": "uint256"
        }
      ],
      "stateMutability": "view",
      "type": "function"
    },
    {
      "inputs": [],
      "name": "cancelMarket",
      "outputs": [],
      "stateMutability": "nonpayable",
      "type": "function"
    },
    {
      "inputs": [],
      "name": "collateral",
      "outputs": [
        {
          "internalType": "contract IERC20",
          "name": "",
          "type": "address"
        }
      ],
      "stateMutability": "view",
      "type": "function"
    },
    {
      "inputs": [],
      "name": "collateralDecimals",
      "outputs": [
        {
          "internalType": "uint8",
          "name": "",
          "type": "uint8"
        }
      ],
      "stateMutability": "view",
      "type": "function"
    },
    {
      "inputs": [],
      "name": "creator",
      "outputs": [
        {
          "internalType": "address",
          "name": "",
          "type": "address"
        }
      ],
      "stateMutability": "view",
      "type": "function"
    },
    {
      "inputs": [
        {
          "internalType": "uint256",
          "name": "collateralAmount",
          "type": "uint256"
        }
      ],
      "name": "depositCompleteSet",
      "outputs": [],
      "stateMutability": "nonpayable",
      "type": "function"
    },
    {
      "inputs": [],
      "name": "factory",
      "outputs": [
        {
          "internalType": "address",
          "name": "",
          "type": "address"
        }
      ],
      "stateMutability": "view",
      "type": "function"
    },
    {
      "inputs": [],
      "name": "feeBps",
      "outputs": [
        {
          "internalType": "uint256",
          "name": "",
          "type": "uint256"
        }
      ],
      "stateMutability": "view",
      "type": "function"
    },
    {
      "inputs": [],
      "name": "feeRecipient",
      "outputs": [
        {
          "internalType": "address",
          "name": "",
          "type": "address"
        }
      ],
      "stateMutability": "view",
      "type": "function"
    },
    {
      "inputs": [],
      "name": "finalOutcome",
      "outputs": [
        {
          "internalType": "int256",
          "name": "",
          "type": "int256"
        }
      ],
      "stateMutability": "view",
      "type": "function"
    },
    {
      "inputs": [
        {
          "internalType": "int256",
          "name": "outcome",
          "type": "int256"
        }
      ],
      "name": "finalize",
      "outputs": [],
      "stateMutability": "nonpayable",
      "type": "function"
    },
    {
      "inputs": [
        {
          "internalType": "bytes32",
          "name": "role",
          "type": "bytes32"
        }
      ],
      "name": "getRoleAdmin",
      "outputs": [
        {
          "internalType": "bytes32",
          "name": "",
          "type": "bytes32"
        }
      ],
      "stateMutability": "view",
      "type": "function"
    },
    {
      "inputs": [
        {
          "internalType": "bytes32",
          "name": "role",
          "type": "bytes32"
        },
        {
          "internalType": "address",
          "name": "account",
          "type": "address"
        }
      ],
      "name": "grantRole",
      "outputs": [],
      "stateMutability": "nonpayable",
      "type": "function"
    },
    {
      "inputs": [
        {
          "internalType": "bytes32",
          "name": "role",
          "type": "bytes32"
        },
        {
          "internalType": "address",
          "name": "account",
          "type": "address"
        }
      ],
      "name": "hasRole",
      "outputs": [
        {
          "internalType": "bool",
          "name": "",
          "type": "bool"
        }
      ],
      "stateMutability": "view",
      "type": "function"
    },
    {
      "inputs": [
        {
          "internalType": "address",
          "name": "factory_",
          "type": "address"
        },
        {
          "internalType": "address",
          "name": "creator_",
          "type": "address"
        },
        {
          "internalType": "address",
          "name": "collateralToken_",
          "type": "address"
        },
        {
          "internalType": "address",
          "name": "oracle_",
          "type": "address"
        },
        {
          "internalType": "uint256",
          "name": "feeBps_",
          "type": "uint256"
        },
        {
          "internalType": "uint256",
          "name": "resolutionTime_",
          "type": "uint256"
        },
        {
          "internalType": "bytes",
          "name": "",
          "type": "bytes"
        }
      ],
      "name": "initialize",
      "outputs": [],
      "stateMutability": "nonpayable",
      "type": "function"
    },
    {
      "inputs": [],
      "name": "oracle",
      "outputs": [
        {
          "internalType": "address",
          "name": "",
          "type": "address"
        }
      ],
      "stateMutability": "view",
      "type": "function"
    },
    {
      "inputs": [
        {
          "internalType": "uint256",
          "name": "tokenAmount",
          "type": "uint256"
        }
      ],
      "name": "redeem",
      "outputs": [],
      "stateMutability": "nonpayable",
      "type": "function"
    },
    {
      "inputs": [
        {
          "internalType": "uint256",
          "name": "amount18PerOutcome",
          "type": "uint256"
        }
      ],
      "name": "redeemCompleteSetOnCancel",
      "outputs": [],
      "stateMutability": "nonpayable",
      "type": "function"
    },
    {
      "inputs": [
        {
          "internalType": "bytes32",
          "name": "role",
          "type": "bytes32"
        },
        {
          "internalType": "address",
          "name": "callerConfirmation",
          "type": "address"
        }
      ],
      "name": "renounceRole",
      "outputs": [],
      "stateMutability": "nonpayable",
      "type": "function"
    },
    {
      "inputs": [],
      "name": "resolutionTime",
      "outputs": [
        {
          "internalType": "uint256",
          "name": "",
          "type": "uint256"
        }
      ],
      "stateMutability": "view",
      "type": "function"
    },
    {
      "inputs": [
        {
          "internalType": "bytes32",
          "name": "role",
          "type": "bytes32"
        },
        {
          "internalType": "address",
          "name": "account",
          "type": "address"
        }
      ],
      "name": "revokeRole",
      "outputs": [],
      "stateMutability": "nonpayable",
      "type": "function"
    },
    {
      "inputs": [
        {
          "internalType": "address",
          "name": "newRecipient",
          "type": "address"
        }
      ],
      "name": "setFeeRecipient",
      "outputs": [],
      "stateMutability": "nonpayable",
      "type": "function"
    },
    {
      "inputs": [],
      "name": "startTrading",
      "outputs": [],
      "stateMutability": "nonpayable",
      "type": "function"
    },
    {
      "inputs": [],
      "name": "state",
      "outputs": [
        {
          "internalType": "enum BinaryMarket.State",
          "name": "",
          "type": "uint8"
        }
      ],
      "stateMutability": "view",
      "type": "function"
    },
    {
      "inputs": [
        {
          "internalType": "bytes4",
          "name": "interfaceId",
          "type": "bytes4"
        }
      ],
      "name": "supportsInterface",
      "outputs": [
        {
          "internalType": "bool",
          "name": "",
          "type": "bool"
        }
      ],
      "stateMutability": "view",
      "type": "function"
    },
    {
      "inputs": [],
      "name": "tokenNo",
      "outputs": [
        {
          "internalType": "address",
          "name": "",
          "type": "address"
        }
      ],
      "stateMutability": "view",
      "type": "function"
    },
    {
      "inputs": [],
      "name": "tokenYes",
      "outputs": [
        {
          "internalType": "address",
          "name": "",
          "type": "address"
        }
      ],
      "stateMutability": "view",
      "type": "function"
    },
    {
      "inputs": [
        {
          "internalType": "uint256",
          "name": "amount",
          "type": "uint256"
        }
      ],
      "name": "withdrawFees",
      "outputs": [],
      "stateMutability": "nonpayable",
      "type": "function"
    }
  ],
  "bytecode": "0x608060405234801561001057600080fd5b5060018055613024806100246000396000f3fe60806040523480156200001157600080fd5b50600436106200020d5760003560e01c8063781908161162000125578063d25da26411620000af578063e6ddc71a116200007a578063e6ddc71a146200046e578063e74b981b1462000485578063ec9c6c30146200049c578063f3e41e9014620004c457600080fd5b8063d25da2641462000415578063d547741f146200042c578063d8dfeb451462000443578063db006a75146200045757600080fd5b8063a217fddf11620000f0578063a217fddf146200036c578063bfb5396c14620003cb578063c19d93fb14620003df578063c45a015514620003fc57600080fd5b80637819081614620003755780637dc0d1d014620003895780637ec8bc6d146200039d57806391d1485414620003b457600080fd5b80632f2ff15d11620001a75780635e318e0711620001725780635e318e071462000341578063682c205814620003585780636bfefd6b146200036257806375b238fc146200036c57600080fd5b80632f2ff15d14620002f557806336568abe146200030c578063404002a6146200032357806346904840146200032d57600080fd5b8063247587c611620001e8578063247587c614620002a2578063248a9ca314620002bb57806324a9d85314620002e1578063293230b814620002eb57600080fd5b806301ffc9a7146200021257806302d05d3f146200023e57806307e2cea5146200026b575b600080fd5b620002296200022336600462001b55565b620004ce565b60405190151581526020015b60405180910390f35b60035462000252906001600160a01b031681565b6040516001600160a01b03909116815260200162000235565b620002937f68e79a7bf1e0bc45d0a330c573bc367f9cf464fd326078812f301165fbda4ef181565b60405190815260200162000235565b620002b9620002b336600462001b88565b62000506565b005b62000293620002cc36600462001b88565b60009081526020819052604090206001015490565b6200029360085481565b620002b9620007c1565b620002b96200030636600462001bbf565b62000861565b620002b96200031d36600462001bbf565b62000890565b62000293600c5481565b600a5462000252906001600160a01b031681565b620002b96200035236600462001b88565b620008cb565b62000293600b5481565b620002b962000a40565b62000293600081565b60065462000252906001600160a01b031681565b60075462000252906001600160a01b031681565b620002b9620003ae36600462001b88565b62000b05565b62000229620003c536600462001bbf565b62000dc2565b60055462000252906001600160a01b031681565b600254620003ed9060ff1681565b60405162000235919062001c04565b600254620002529061010090046001600160a01b031681565b620002b96200042636600462001b88565b62000deb565b620002b96200043d36600462001bbf565b62000f84565b60045462000252906001600160a01b031681565b620002b96200046836600462001b88565b62000fad565b620002b96200047f36600462001c2d565b620012d5565b620002b96200049636600462001d02565b6200185c565b600454620004b190600160a01b900460ff1681565b60405160ff909116815260200162000235565b6200029360095481565b60006001600160e01b03198216637965db0b60e01b14806200050057506301ffc9a760e01b6001600160e01b03198316145b92915050565b620005106200192a565b600160025460ff1660038111156200052c576200052c62001bee565b146200056d5760405162461bcd60e51b815260206004820152600b60248201526a6e6f742074726164696e6760a81b60448201526064015b60405180910390fd5b6009544210620005b25760405162461bcd60e51b815260206004820152600f60248201526e3830b9ba103932b9b7b63aba34b7b760891b604482015260640162000564565b60008111620005d55760405162461bcd60e51b8152600401620005649062001d20565b600480546040516323b872dd60e01b81523392810192909252306024830152604482018390526001600160a01b0316906323b872dd906064016020604051808303816000875af11580156200062e573d6000803e3d6000fd5b505050506040513d601f19601f8201168201806040525081019062000654919062001d42565b620006965760405162461bcd60e51b81526020600482015260116024820152701d1c985b9cd9995c919c9bdb4819985a5b607a1b604482015260640162000564565b6000620006a38262001955565b6005546040516340c10f1960e01b8152336004820152602481018390529192506001600160a01b0316906340c10f1990604401600060405180830381600087803b158015620006f157600080fd5b505af115801562000706573d6000803e3d6000fd5b50506006546040516340c10f1960e01b8152336004820152602481018590526001600160a01b0390911692506340c10f199150604401600060405180830381600087803b1580156200075757600080fd5b505af11580156200076c573d6000803e3d6000fd5b505060408051858152602081018590529081018490523392507fffbe53d905a967afd5de7e14cbf466504f89aae60b0fe308dbe6cac6f8fd110e915060600160405180910390a250620007be60018055565b50565b620007ce60003362000dc2565b620007ed5760405162461bcd60e51b8152600401620005649062001d66565b600060025460ff16600381111562000809576200080962001bee565b14620008295760405162461bcd60e51b8152600401620005649062001d89565b6002805460ff191660011790556040517fae0605e1224f1db54698fcd818991c4cc798fb1083fe29fd0e208a4c2fccce0f90600090a1565b6000828152602081905260409020600101546200087e81620019a4565b6200088a8383620019b0565b50505050565b6001600160a01b0381163314620008ba5760405163334bd91960e11b815260040160405180910390fd5b620008c6828262001a48565b505050565b620008d860003362000dc2565b620008f75760405162461bcd60e51b8152600401620005649062001d66565b6000811180156200090a5750600b548111155b620009455760405162461bcd60e51b815260206004820152600a60248201526918985908185b5bdd5b9d60b21b604482015260640162000564565b80600b600082825462000959919062001dc2565b909155505060048054600a5460405163a9059cbb60e01b81526001600160a01b039182169381019390935260248301849052169063a9059cbb906044016020604051808303816000875af1158015620009b6573d6000803e3d6000fd5b505050506040513d601f19601f82011682018060405250810190620009dc919062001d42565b620009fb5760405162461bcd60e51b8152600401620005649062001dd8565b600a546040518281526001600160a01b03909116907fc0819c13be868895eb93e40eaceb96de976442fa1d404e5c55f14bb65a8c489a9060200160405180910390a250565b62000a4d60003362000dc2565b62000a6c5760405162461bcd60e51b8152600401620005649062001d66565b600060025460ff16600381111562000a885762000a8862001bee565b148062000aae5750600160025460ff16600381111562000aac5762000aac62001bee565b145b62000acd5760405162461bcd60e51b8152600401620005649062001d89565b6002805460ff191660031790556040517f4fadb7118e1d9908e38104cfc893e949500a77e88e1d2ce606bd795f61d6609490600090a1565b62000b0f6200192a565b600360025460ff16600381111562000b2b5762000b2b62001bee565b1462000b695760405162461bcd60e51b815260206004820152600c60248201526b1b9bdd0818d85b98d95b195960a21b604482015260640162000564565b6000811162000b8c5760405162461bcd60e51b8152600401620005649062001d20565b600554604051632770a7eb60e21b8152336004820152602481018390526001600160a01b0390911690639dc29fac90604401600060405180830381600087803b15801562000bd957600080fd5b505af115801562000bee573d6000803e3d6000fd5b5050600654604051632770a7eb60e21b8152336004820152602481018590526001600160a01b039091169250639dc29fac9150604401600060405180830381600087803b15801562000c3f57600080fd5b505af115801562000c54573d6000803e3d6000fd5b50505050600062000c658262001ab7565b600480546040516370a0823160e01b8152309281019290925291925082916001600160a01b0316906370a0823190602401602060405180830381865afa15801562000cb4573d6000803e3d6000fd5b505050506040513d601f19601f8201168201806040525081019062000cda919062001dff565b101562000d1f5760405162461bcd60e51b81526020600482015260126024820152711a5b9cdd59999a58da595b9d081d985d5b1d60721b604482015260640162000564565b6004805460405163a9059cbb60e01b81523392810192909252602482018390526001600160a01b03169063a9059cbb906044016020604051808303816000875af115801562000d72573d6000803e3d6000fd5b505050506040513d601f19601f8201168201806040525081019062000d98919062001d42565b62000db75760405162461bcd60e51b8152600401620005649062001dd8565b50620007be60018055565b6000918252602082815260408084206001600160a01b0393909316845291905290205460ff1690565b62000e177f68e79a7bf1e0bc45d0a330c573bc367f9cf464fd326078812f301165fbda4ef13362000dc2565b62000e525760405162461bcd60e51b815260206004820152600a6024820152696e6f74206f7261636c6560b01b604482015260640162000564565b60095442101562000e925760405162461bcd60e51b8152602060048201526009602482015268746f6f206561726c7960b81b604482015260640162000564565b600160025460ff16600381111562000eae5762000eae62001bee565b148062000ed45750600060025460ff16600381111562000ed25762000ed262001bee565b145b62000ef35760405162461bcd60e51b8152600401620005649062001d89565b80158062000f015750806001145b62000f3d5760405162461bcd60e51b815260206004820152600b60248201526a626164206f7574636f6d6560a81b604482015260640162000564565b6002805460ff191681179055600c8190556040518181527f4e795aabf7556806a9e797f2e537757418d1767d71e0cbb0b08959e3e7921ce59060200160405180910390a150565b60008281526020819052604090206001015462000fa181620019a4565b6200088a838362001a48565b62000fb76200192a565b6002805460ff16600381111562000fd25762000fd262001bee565b14620010105760405162461bcd60e51b815260206004820152600c60248201526b1b9bdd081c995cdbdb1d995960a21b604482015260640162000564565b60008111620010335760405162461bcd60e51b8152600401620005649062001d20565b6000600c5460011462001052576006546001600160a01b03166200105f565b6005546001600160a01b03165b604051632770a7eb60e21b8152336004820152602481018490529091506001600160a01b03821690639dc29fac90604401600060405180830381600087803b158015620010ab57600080fd5b505af1158015620010c0573d6000803e3d6000fd5b505050506000620010d18362001ab7565b905060008060085411620010e757600062001106565b61271060085483620010fa919062001e19565b62001106919062001e33565b9050600062001116828462001dc2565b905081600b60008282546200112c919062001e56565b9091555050600480546040516370a0823160e01b8152309281019290925282916001600160a01b03909116906370a0823190602401602060405180830381865afa1580156200117f573d6000803e3d6000fd5b505050506040513d601f19601f82011682018060405250810190620011a5919062001dff565b1015620011ea5760405162461bcd60e51b81526020600482015260126024820152711a5b9cdd59999a58da595b9d081d985d5b1d60721b604482015260640162000564565b6004805460405163a9059cbb60e01b81523392810192909252602482018390526001600160a01b03169063a9059cbb906044016020604051808303816000875af11580156200123d573d6000803e3d6000fd5b505050506040513d601f19601f8201168201806040525081019062001263919062001d42565b620012825760405162461bcd60e51b8152600401620005649062001dd8565b600c546040805191825260208201879052810182905233907ff411de6b8a866871ee2a39506c82a02a48b2d32885c0442480067c0eea691fc89060600160405180910390a250505050620007be60018055565b600d5460ff1615620013195760405162461bcd60e51b815260206004820152600c60248201526b185b1c9958591e481a5b9a5d60a21b604482015260640162000564565b6001600160a01b038816158015906200133a57506001600160a01b03871615155b620013755760405162461bcd60e51b815260206004820152600a602482015269626164206163746f727360b01b604482015260640162000564565b6001600160a01b038616158015906200139657506001600160a01b03851615155b620013d05760405162461bcd60e51b815260206004820152600960248201526862616420616464727360b81b604482015260640162000564565b428311620014165760405162461bcd60e51b81526020600482015260126024820152711c995cdbdb1d5d1a5bdb881a5b881c185cdd60721b604482015260640162000564565b6103e8841115620014595760405162461bcd60e51b815260206004820152600c60248201526b0cccaca40e8dede40d0d2ced60a31b604482015260640162000564565b600280546001600160a01b03808b1661010002610100600160a81b031990921691909117909155600380548983166001600160a01b0319918216179091556004805492891692909116821781556040805163313ce56760e01b8152905163313ce567928281019260209291908290030181865afa158015620014df573d6000803e3d6000fd5b505050506040513d601f19601f8201168201806040525081019062001505919062001e6c565b6004805460ff92909216600160a01b0260ff60a01b19909216919091179055600780546001600160a01b038088166001600160a01b03199283161790925560088690556009859055600a8054928a16929091169190911790556200156b600088620019b0565b50620015987f68e79a7bf1e0bc45d0a330c573bc367f9cf464fd326078812f301165fbda4ef186620019b0565b506000604051620015a99062001b47565b620015b49062001e91565b604051809103906000f080158015620015d1573d6000803e3d6000fd5b5090506000604051620015e49062001b47565b620015ef9062001ed8565b604051809103906000f0801580156200160c573d6000803e3d6000fd5b50600580546001600160a01b038086166001600160a01b0319928316811790935560068054918516919092161790556040805163d539139360e01b815290519293509091632f2ff15d91839163d5391393916004808201926020929091908290030181865afa15801562001684573d6000803e3d6000fd5b505050506040513d601f19601f82011682018060405250810190620016aa919062001dff565b6040516001600160e01b031960e084901b1681526004810191909152306024820152604401600060405180830381600087803b158015620016ea57600080fd5b505af1158015620016ff573d6000803e3d6000fd5b50505050806001600160a01b0316632f2ff15d826001600160a01b031663d53913936040518163ffffffff1660e01b8152600401602060405180830381865afa15801562001751573d6000803e3d6000fd5b505050506040513d601f19601f8201168201806040525081019062001777919062001dff565b6040516001600160e01b031960e084901b1681526004810191909152306024820152604401600060405180830381600087803b158015620017b757600080fd5b505af1158015620017cc573d6000803e3d6000fd5b50506002805460ff19908116909155600019600c55600d805490911660011790555050604080516001600160a01b038c811682528b811660208301528a811682840152891660608201526080810188905260a0810187905290517f0476c5e4920930815a67a5a042e26836431f494d3be0f6e10c3034787a7a15f99181900360c00190a150505050505050505050565b6200186960003362000dc2565b620018885760405162461bcd60e51b8152600401620005649062001d66565b6001600160a01b038116620018ce5760405162461bcd60e51b815260206004820152600b60248201526a0726563697069656e743d360ac1b604482015260640162000564565b600a546040516001600160a01b038084169216907faaebcf1bfa00580e41d966056b48521fa9f202645c86d4ddf28113e617c1b1d390600090a3600a80546001600160a01b0319166001600160a01b0392909216919091179055565b6002600154036200194e57604051633ee5aeb560e01b815260040160405180910390fd5b6002600155565b600454600090600160a01b900460ff1660120362001971575090565b6004546200198b90600160a01b900460ff16601262001f1d565b6200199890600a62002036565b62000500908362001e19565b620007be813362001b06565b6000620019be838362000dc2565b62001a3f576000838152602081815260408083206001600160a01b03861684529091529020805460ff19166001179055620019f63390565b6001600160a01b0316826001600160a01b0316847f2f8788117e7eff1d82e926ec794901d17c78024a50270940304540a733656f0d60405160405180910390a450600162000500565b50600062000500565b600062001a56838362000dc2565b1562001a3f576000838152602081815260408083206001600160a01b0386168085529252808320805460ff1916905551339286917ff6391f5c32d9c69d2a47ea670b442974b53935d1edc7fd64eb21e047a839171b9190a450600162000500565b600454600090600160a01b900460ff1660120362001ad3575090565b60045462001aed90600160a01b900460ff16601262001f1d565b62001afa90600a62002036565b62000500908362001e33565b62001b12828262000dc2565b62001b435760405163e2517d3f60e01b81526001600160a01b03821660048201526024810183905260440162000564565b5050565b610fa7806200204883390190565b60006020828403121562001b6857600080fd5b81356001600160e01b03198116811462001b8157600080fd5b9392505050565b60006020828403121562001b9b57600080fd5b5035919050565b80356001600160a01b038116811462001bba57600080fd5b919050565b6000806040838503121562001bd357600080fd5b8235915062001be56020840162001ba2565b90509250929050565b634e487b7160e01b600052602160045260246000fd5b602081016004831062001c2757634e487b7160e01b600052602160045260246000fd5b91905290565b60008060008060008060008060e0898b03121562001c4a57600080fd5b62001c558962001ba2565b975062001c6560208a0162001ba2565b965062001c7560408a0162001ba2565b955062001c8560608a0162001ba2565b94506080890135935060a0890135925060c089013567ffffffffffffffff8082111562001cb157600080fd5b818b0191508b601f83011262001cc657600080fd5b81358181111562001cd657600080fd5b8c602082850101111562001ce957600080fd5b6020830194508093505050509295985092959890939650565b60006020828403121562001d1557600080fd5b62001b818262001ba2565b6020808252600890820152670616d6f756e743d360c41b604082015260600190565b60006020828403121562001d5557600080fd5b8151801515811462001b8157600080fd5b6020808252600990820152683737ba1030b236b4b760b91b604082015260600190565b60208082526009908201526862616420737461746560b81b604082015260600190565b634e487b7160e01b600052601160045260246000fd5b8181038181111562000500576200050062001dac565b6020808252600d908201526c1d1c985b9cd9995c8819985a5b609a1b604082015260600190565b60006020828403121562001e1257600080fd5b5051919050565b808202811582820484141762000500576200050062001dac565b60008262001e5157634e487b7160e01b600052601260045260246000fd5b500490565b8082018082111562000500576200050062001dac565b60006020828403121562001e7f57600080fd5b815160ff8116811462001b8157600080fd5b60408152600062001eb560408301600381526259455360e81b602082015260400190565b828103602084015262001b8181600381526259455360e81b602082015260400190565b60408152600062001efb6040830160028152614e4f60f01b602082015260400190565b828103602084015262001b818160028152614e4f60f01b602082015260400190565b60ff828116828216039081111562000500576200050062001dac565b600181815b8085111562001f7a57816000190482111562001f5e5762001f5e62001dac565b8085161562001f6c57918102915b93841c939080029062001f3e565b509250929050565b60008262001f935750600162000500565b8162001fa25750600062000500565b816001811462001fbb576002811462001fc65762001fe6565b600191505062000500565b60ff84111562001fda5762001fda62001dac565b50506001821b62000500565b5060208310610133831016604e8410600b84101617156200200b575081810a62000500565b62002017838362001f39565b80600019048211156200202e576200202e62001dac565b029392505050565b600062001b8160ff84168362001f8256fe60806040523480156200001157600080fd5b5060405162000fa738038062000fa78339810160408190526200003491620001e9565b81816003620000448382620002e4565b506004620000538282620002e4565b5062000065915060009050336200006e565b505050620003b0565b60008281526005602090815260408083206001600160a01b038516845290915281205460ff16620001175760008381526005602090815260408083206001600160a01b03861684529091529020805460ff19166001179055620000ce3390565b6001600160a01b0316826001600160a01b0316847f2f8788117e7eff1d82e926ec794901d17c78024a50270940304540a733656f0d60405160405180910390a45060016200011b565b5060005b92915050565b634e487b7160e01b600052604160045260246000fd5b600082601f8301126200014957600080fd5b81516001600160401b038082111562000166576200016662000121565b604051601f8301601f19908116603f0116810190828211818310171562000191576200019162000121565b8160405283815260209250866020858801011115620001af57600080fd5b600091505b83821015620001d35785820183015181830184015290820190620001b4565b6000602085830101528094505050505092915050565b60008060408385031215620001fd57600080fd5b82516001600160401b03808211156200021557600080fd5b620002238683870162000137565b935060208501519150808211156200023a57600080fd5b50620002498582860162000137565b9150509250929050565b600181811c908216806200026857607f821691505b6020821081036200028957634e487b7160e01b600052602260045260246000fd5b50919050565b601f821115620002df576000816000526020600020601f850160051c81016020861015620002ba5750805b601f850160051c820191505b81811015620002db57828155600101620002c6565b5050505b505050565b81516001600160401b0381111562000300576200030062000121565b620003188162000311845462000253565b846200028f565b602080601f831160018114620003505760008415620003375750858301515b600019600386901b1c1916600185901b178555620002db565b600085815260208120601f198616915b82811015620003815788860151825594840194600190910190840162000360565b5085821015620003a05787850151600019600388901b60f8161c191681555b5050505050600190811b01905550565b610be780620003c06000396000f3fe608060405234801561001057600080fd5b50600436106101215760003560e01c806340c10f19116100ad578063a217fddf11610071578063a217fddf1461025f578063a9059cbb14610267578063d53913931461027a578063d547741f146102a1578063dd62ed3e146102b457600080fd5b806340c10f19146101f557806370a082311461020857806391d148541461023157806395d89b41146102445780639dc29fac1461024c57600080fd5b806323b872dd116100f457806323b872dd14610188578063248a9ca31461019b5780632f2ff15d146101be578063313ce567146101d357806336568abe146101e257600080fd5b806301ffc9a71461012657806306fdde031461014e578063095ea7b31461016357806318160ddd14610176575b600080fd5b6101396101343660046109ca565b6102ed565b60405190151581526020015b60405180910390f35b610156610324565b60405161014591906109fb565b610139610171366004610a66565b6103b6565b6002545b604051908152602001610145565b610139610196366004610a90565b6103ce565b61017a6101a9366004610acc565b60009081526005602052604090206001015490565b6101d16101cc366004610ae5565b6103f2565b005b60405160128152602001610145565b6101d16101f0366004610ae5565b61041d565b6101d1610203366004610a66565b610455565b61017a610216366004610b11565b6001600160a01b031660009081526020819052604090205490565b61013961023f366004610ae5565b610489565b6101566104b4565b6101d161025a366004610a66565b6104c3565b61017a600081565b610139610275366004610a66565b6104f7565b61017a7f9f2df0fed2c77648de5860a4cc508cd0818c85b8b8a1ab4ceeef8d981c8956a681565b6101d16102af366004610ae5565b610505565b61017a6102c2366004610b2c565b6001600160a01b03918216600090815260016020908152604080832093909416825291909152205490565b60006001600160e01b03198216637965db0b60e01b148061031e57506301ffc9a760e01b6001600160e01b03198316145b92915050565b60606003805461033390610b56565b80601f016020809104026020016040519081016040528092919081815260200182805461035f90610b56565b80156103ac5780601f10610381576101008083540402835291602001916103ac565b820191906000526020600020905b81548152906001019060200180831161038f57829003601f168201915b5050505050905090565b6000336103c481858561052a565b5060019392505050565b6000336103dc858285610537565b6103e78585856105b5565b506001949350505050565b60008281526005602052604090206001015461040d81610614565b6104178383610621565b50505050565b6001600160a01b03811633146104465760405163334bd91960e11b815260040160405180910390fd5b61045082826106b5565b505050565b7f9f2df0fed2c77648de5860a4cc508cd0818c85b8b8a1ab4ceeef8d981c8956a661047f81610614565b6104508383610722565b60009182526005602090815260408084206001600160a01b0393909316845291905290205460ff1690565b60606004805461033390610b56565b7f9f2df0fed2c77648de5860a4cc508cd0818c85b8b8a1ab4ceeef8d981c8956a66104ed81610614565b610450838361075c565b6000336103c48185856105b5565b60008281526005602052604090206001015461052081610614565b61041783836106b5565b6104508383836001610792565b6001600160a01b0383811660009081526001602090815260408083209386168352929052205460001981101561041757818110156105a657604051637dc7a0d960e11b81526001600160a01b038416600482015260248101829052604481018390526064015b60405180910390fd5b61041784848484036000610792565b6001600160a01b0383166105df57604051634b637e8f60e11b81526000600482015260240161059d565b6001600160a01b0382166106095760405163ec442f0560e01b81526000600482015260240161059d565b610450838383610867565b61061e8133610991565b50565b600061062d8383610489565b6106ad5760008381526005602090815260408083206001600160a01b03861684529091529020805460ff191660011790556106653390565b6001600160a01b0316826001600160a01b0316847f2f8788117e7eff1d82e926ec794901d17c78024a50270940304540a733656f0d60405160405180910390a450600161031e565b50600061031e565b60006106c18383610489565b156106ad5760008381526005602090815260408083206001600160a01b0386168085529252808320805460ff1916905551339286917ff6391f5c32d9c69d2a47ea670b442974b53935d1edc7fd64eb21e047a839171b9190a450600161031e565b6001600160a01b03821661074c5760405163ec442f0560e01b81526000600482015260240161059d565b61075860008383610867565b5050565b6001600160a01b03821661078657604051634b637e8f60e11b81526000600482015260240161059d565b61075882600083610867565b6001600160a01b0384166107bc5760405163e602df0560e01b81526000600482015260240161059d565b6001600160a01b0383166107e657604051634a1406b160e11b81526000600482015260240161059d565b6001600160a01b038085166000908152600160209081526040808320938716835292905220829055801561041757826001600160a01b0316846001600160a01b03167f8c5be1e5ebec7d5bd14f71427d1e84f3dd0314c0f7b2291e5b200ac8c7c3b9258460405161085991815260200190565b60405180910390a350505050565b6001600160a01b0383166108925780600260008282546108879190610b90565b909155506109049050565b6001600160a01b038316600090815260208190526040902054818110156108e55760405163391434e360e21b81526001600160a01b0385166004820152602481018290526044810183905260640161059d565b6001600160a01b03841660009081526020819052604090209082900390555b6001600160a01b0382166109205760028054829003905561093f565b6001600160a01b03821660009081526020819052604090208054820190555b816001600160a01b0316836001600160a01b03167fddf252ad1be2c89b69c2b068fc378daa952ba7f163c4a11628f55a4df523b3ef8360405161098491815260200190565b60405180910390a3505050565b61099b8282610489565b6107585760405163e2517d3f60e01b81526001600160a01b03821660048201526024810183905260440161059d565b6000602082840312156109dc57600080fd5b81356001600160e01b0319811681146109f457600080fd5b9392505050565b60006020808352835180602085015260005b81811015610a2957858101830151858201604001528201610a0d565b506000604082860101526040601f19601f8301168501019250505092915050565b80356001600160a01b0381168114610a6157600080fd5b919050565b60008060408385031215610a7957600080fd5b610a8283610a4a565b946020939093013593505050565b600080600060608486031215610aa557600080fd5b610aae84610a4a565b9250610abc60208501610a4a565b9150604084013590509250925092565b600060208284031215610ade57600080fd5b5035919050565b60008060408385031215610af857600080fd5b82359150610b0860208401610a4a565b90509250929050565b600060208284031215610b2357600080fd5b6109f482610a4a565b60008060408385031215610b3f57600080fd5b610b4883610a4a565b9150610b0860208401610a4a565b600181811c90821680610b6a57607f821691505b602082108103610b8a57634e487b7160e01b600052602260045260246000fd5b50919050565b8082018082111561031e57634e487b7160e01b600052601160045260246000fdfea2646970667358221220f44d65d4a7a14f7c0213b971bbfc948d00051f5eff31959cdfca2f04950a96f964736f6c63430008180033a2646970667358221220774e726fb81918eee322148feded1c9cf9b5856202450e3c50b71a08e13376bb64736f6c63430008180033",
  "linkReferences": {},
  "deployedLinkReferences": {}
}