{
  "_format": "hh-sol-artifact-1",
  "contractName": "Foresight",
  "sourceName": "contracts/Foresight.sol",
  "abi": [
    {
      "inputs": [
        {
          "internalType": "address",
          "name": "_collateralToken",
          "type": "address"
        }
      ],
      "stateMutability": "nonpayable",
      "type": "constructor"
    },
    {
      "inputs": [],
      "name": "ReentrancyGuardReentrantCall",
      "type": "error"
    },
    {
      "inputs": [
        {
          "internalType": "address",
          "name": "token",
          "type": "address"
        }
      ],
      "name": "SafeERC20FailedOperation",
      "type": "error"
    },
    {
      "anonymous": false,
      "inputs": [
        {
          "indexed": true,
          "internalType": "uint256",
          "name": "predictionId",
          "type": "uint256"
        },
        {
          "indexed": true,
          "internalType": "address",
          "name": "creator",
          "type": "address"
        },
        {
          "indexed": false,
          "internalType": "string",
          "name": "title",
          "type": "string"
        },
        {
          "indexed": false,
          "internalType": "uint256",
          "name": "deadline",
          "type": "uint256"
        }
      ],
      "name": "PredictionCreated",
      "type": "event"
    },
    {
      "anonymous": false,
      "inputs": [
        {
          "indexed": true,
          "internalType": "uint256",
          "name": "predictionId",
          "type": "uint256"
        },
        {
          "indexed": false,
          "internalType": "uint256",
          "name": "winningOption",
          "type": "uint256"
        }
      ],
      "name": "PredictionResolved",
      "type": "event"
    },
    {
      "anonymous": false,
      "inputs": [
        {
          "indexed": true,
          "internalType": "uint256",
          "name": "predictionId",
          "type": "uint256"
        },
        {
          "indexed": true,
          "internalType": "address",
          "name": "user",
          "type": "address"
        },
        {
          "indexed": false,
          "internalType": "uint256",
          "name": "amount",
          "type": "uint256"
        }
      ],
      "name": "RewardClaimed",
      "type": "event"
    },
    {
      "anonymous": false,
      "inputs": [
        {
          "indexed": true,
          "internalType": "uint256",
          "name": "predictionId",
          "type": "uint256"
        },
        {
          "indexed": true,
          "internalType": "address",
          "name": "user",
          "type": "address"
        },
        {
          "indexed": false,
          "internalType": "uint256",
          "name": "option",
          "type": "uint256"
        },
        {
          "indexed": false,
          "internalType": "uint256",
          "name": "amount",
          "type": "uint256"
        }
      ],
      "name": "StakeAdded",
      "type": "event"
    },
    {
      "inputs": [
        {
          "internalType": "uint256",
          "name": "_predictionId",
          "type": "uint256"
        }
      ],
      "name": "claimReward",
      "outputs": [],
      "stateMutability": "nonpayable",
      "type": "function"
    },
    {
      "inputs": [],
      "name": "collateralToken",
      "outputs": [
        {
          "internalType": "contract IERC20",
          "name": "",
          "type": "address"
        }
      ],
      "stateMutability": "view",
      "type": "function"
    },
    {
      "inputs": [
        {
          "internalType": "string",
          "name": "_title",
          "type": "string"
        },
        {
          "internalType": "string",
          "name": "_description",
          "type": "string"
        },
        {
          "internalType": "uint256",
          "name": "_deadline",
          "type": "uint256"
        }
      ],
      "name": "createPrediction",
      "outputs": [
        {
          "internalType": "uint256",
          "name": "",
          "type": "uint256"
        }
      ],
      "stateMutability": "nonpayable",
      "type": "function"
    },
    {
      "inputs": [
        {
          "internalType": "string",
          "name": "_title",
          "type": "string"
        },
        {
          "internalType": "string",
          "name": "_description",
          "type": "string"
        },
        {
          "internalType": "uint256",
          "name": "_deadline",
          "type": "uint256"
        },
        {
          "internalType": "address",
          "name": "_priceFeed",
          "type": "address"
        },
        {
          "internalType": "int256",
          "name": "_targetPrice",
          "type": "int256"
        },
        {
          "internalType": "uint8",
          "name": "_comparator",
          "type": "uint8"
        }
      ],
      "name": "createPricePrediction",
      "outputs": [
        {
          "internalType": "uint256",
          "name": "",
          "type": "uint256"
        }
      ],
      "stateMutability": "nonpayable",
      "type": "function"
    },
    {
      "inputs": [
        {
          "internalType": "uint256",
          "name": "_predictionId",
          "type": "uint256"
        },
        {
          "internalType": "uint256",
          "name": "_option",
          "type": "uint256"
        }
      ],
      "name": "getOptionStake",
      "outputs": [
        {
          "internalType": "uint256",
          "name": "",
          "type": "uint256"
        }
      ],
      "stateMutability": "view",
      "type": "function"
    },
    {
      "inputs": [
        {
          "internalType": "uint256",
          "name": "_predictionId",
          "type": "uint256"
        }
      ],
      "name": "getPrediction",
      "outputs": [
        {
          "internalType": "address",
          "name": "creator",
          "type": "address"
        },
        {
          "internalType": "string",
          "name": "title",
          "type": "string"
        },
        {
          "internalType": "string",
          "name": "description",
          "type": "string"
        },
        {
          "internalType": "uint256",
          "name": "deadline",
          "type": "uint256"
        },
        {
          "internalType": "uint256",
          "name": "totalStake",
          "type": "uint256"
        },
        {
          "internalType": "bool",
          "name": "resolved",
          "type": "bool"
        },
        {
          "internalType": "uint256",
          "name": "winningOption",
          "type": "uint256"
        }
      ],
      "stateMutability": "view",
      "type": "function"
    },
    {
      "inputs": [],
      "name": "getPredictionCount",
      "outputs": [
        {
          "internalType": "uint256",
          "name": "",
          "type": "uint256"
        }
      ],
      "stateMutability": "view",
      "type": "function"
    },
    {
      "inputs": [
        {
          "internalType": "uint256",
          "name": "_predictionId",
          "type": "uint256"
        },
        {
          "internalType": "address",
          "name": "_user",
          "type": "address"
        },
        {
          "internalType": "uint256",
          "name": "_option",
          "type": "uint256"
        }
      ],
      "name": "getUserStake",
      "outputs": [
        {
          "internalType": "uint256",
          "name": "",
          "type": "uint256"
        }
      ],
      "stateMutability": "view",
      "type": "function"
    },
    {
      "inputs": [
        {
          "internalType": "uint256",
          "name": "",
          "type": "uint256"
        }
      ],
      "name": "predictions",
      "outputs": [
        {
          "internalType": "address",
          "name": "creator",
          "type": "address"
        },
        {
          "internalType": "string",
          "name": "title",
          "type": "string"
        },
        {
          "internalType": "string",
          "name": "description",
          "type": "string"
        },
        {
          "internalType": "uint256",
          "name": "deadline",
          "type": "uint256"
        },
        {
          "internalType": "uint256",
          "name": "totalStake",
          "type": "uint256"
        },
        {
          "internalType": "bool",
          "name": "resolved",
          "type": "bool"
        },
        {
          "internalType": "uint256",
          "name": "winningOption",
          "type": "uint256"
        },
        {
          "internalType": "address",
          "name": "priceFeed",
          "type": "address"
        },
        {
          "internalType": "int256",
          "name": "targetPrice",
          "type": "int256"
        },
        {
          "internalType": "uint8",
          "name": "comparator",
          "type": "uint8"
        }
      ],
      "stateMutability": "view",
      "type": "function"
    },
    {
      "inputs": [
        {
          "internalType": "uint256",
          "name": "_predictionId",
          "type": "uint256"
        },
        {
          "internalType": "uint256",
          "name": "_winningOption",
          "type": "uint256"
        }
      ],
      "name": "resolvePrediction",
      "outputs": [],
      "stateMutability": "nonpayable",
      "type": "function"
    },
    {
      "inputs": [
        {
          "internalType": "uint256",
          "name": "_predictionId",
          "type": "uint256"
        }
      ],
      "name": "resolvePredictionWithOracle",
      "outputs": [],
      "stateMutability": "nonpayable",
      "type": "function"
    },
    {
      "inputs": [
        {
          "internalType": "uint256",
          "name": "_predictionId",
          "type": "uint256"
        },
        {
          "internalType": "uint256",
          "name": "_option",
          "type": "uint256"
        },
        {
          "internalType": "uint256",
          "name": "amount",
          "type": "uint256"
        }
      ],
      "name": "stake",
      "outputs": [],
      "stateMutability": "nonpayable",
      "type": "function"
    }
  ],
  "bytecode": "0x608060405234801561001057600080fd5b50604051611b59380380611b5983398101604081905261002f916100b3565b60016000556001600160a01b03811661008e5760405162461bcd60e51b815260206004820152601560248201527f496e76616c696420746f6b656e20616464726573730000000000000000000000604482015260640160405180910390fd5b600180546001600160a01b0319166001600160a01b03929092169190911790556100e3565b6000602082840312156100c557600080fd5b81516001600160a01b03811681146100dc57600080fd5b9392505050565b611a67806100f26000396000f3fe608060405234801561001057600080fd5b50600436106100b35760003560e01c8063ae169a5011610071578063ae169a501461014a578063ae5b724c1461015d578063b2016bd414610170578063d472a5701461019b578063fe83bece146101ae578063fefac3db146101d457600080fd5b80624fbbb0146100b857806301668096146100ea57806323df0cfa146100fc5780639882277814610111578063a49a69cd14610124578063a638f2e214610137575b600080fd5b6100cb6100c6366004611428565b6101e7565b6040516100e19a99989796959493929190611487565b60405180910390f35b6002545b6040519081526020016100e1565b61010f61010a366004611428565b610374565b005b6100ee61011f3660046115c6565b610655565b6100ee610132366004611667565b61089b565b61010f610145366004611689565b6108fe565b61010f610158366004611428565b610b26565b6100ee61016b3660046116b5565b610d3c565b600154610183906001600160a01b031681565b6040516001600160a01b0390911681526020016100e1565b6100ee6101a93660046116ea565b610daf565b6101c16101bc366004611428565b610f4e565b6040516100e19796959493929190611757565b61010f6101e2366004611667565b61110a565b600281815481106101f757600080fd5b60009182526020909120600c9091020180546001820180546001600160a01b03909216935090610226906117b4565b80601f0160208091040260200160405190810160405280929190818152602001828054610252906117b4565b801561029f5780601f106102745761010080835404028352916020019161029f565b820191906000526020600020905b81548152906001019060200180831161028257829003601f168201915b5050505050908060020180546102b4906117b4565b80601f01602080910402602001604051908101604052809291908181526020018280546102e0906117b4565b801561032d5780601f106103025761010080835404028352916020019161032d565b820191906000526020600020905b81548152906001019060200180831161031057829003601f168201915b505050506003830154600484015460058501546006860154600787015460088801546009909801549697949693955060ff9283169491936001600160a01b0390911692168a565b600254811061039e5760405162461bcd60e51b8152600401610395906117ee565b60405180910390fd5b6000600282815481106103b3576103b361181d565b60009182526020909120600c9091020180549091506001600160a01b0316331461041a5760405162461bcd60e51b81526020600482015260186024820152774f6e6c792063726561746f722063616e207265736f6c766560401b6044820152606401610395565b80600301544210156104655760405162461bcd60e51b8152602060048201526014602482015273111958591b1a5b99481b9bdd081c995858da195960621b6044820152606401610395565b600581015460ff16156104ad5760405162461bcd60e51b815260206004820152601060248201526f105b1c9958591e481c995cdbdb1d995960821b6044820152606401610395565b60078101546001600160a01b03166105005760405162461bcd60e51b81526020600482015260166024820152752737ba103090383934b1b290383932b234b1ba34b7b760511b6044820152606401610395565b6000808260070160009054906101000a90046001600160a01b03166001600160a01b031663feaf968c6040518163ffffffff1660e01b815260040160a060405180830381865afa158015610558573d6000803e3d6000fd5b505050506040513d601f19601f8201168201806040525081019061057c919061184d565b50935050925050600081116105d35760405162461bcd60e51b815260206004820152601960248201527f4f7261636c652064617461206e6f7420617661696c61626c65000000000000006044820152606401610395565b600883015460098401546000916105ef9185919060ff16611291565b60058501805460ff1916600117905590508061060c57600061060f565b60015b60ff166006850181905560405190815285907fe0d11dcca65d89777e74a05aabfc99281a4c018644b33af1b397a7dbf5e2911b9060200160405180910390a25050505050565b60004285116106a65760405162461bcd60e51b815260206004820152601e60248201527f446561646c696e65206d75737420626520696e207468652066757475726500006044820152606401610395565b60008751116106ef5760405162461bcd60e51b81526020600482015260156024820152745469746c652063616e6e6f7420626520656d70747960581b6044820152606401610395565b6001600160a01b03841661073a5760405162461bcd60e51b8152602060048201526012602482015271125b9d985b1a59081c1c9a58d9481999595960721b6044820152606401610395565b60038260ff1611156107835760405162461bcd60e51b815260206004820152601260248201527124b73b30b634b21031b7b6b830b930ba37b960711b6044820152606401610395565b60028054600181018255600091909152600c81027f405787fa12a823e0f2b7631cc41b3ba8828b3321ca811111fa75cd3aa3bb5ace810180546001600160a01b03191633178155907f405787fa12a823e0f2b7631cc41b3ba8828b3321ca811111fa75cd3aa3bb5acf016107f78a826118ed565b506002810161080689826118ed565b506003810187905560058101805460ff199081169091556007820180546001600160a01b0319166001600160a01b0389161790556008820186905560098201805490911660ff8616179055604051339083907fc987cddf87b5c39d61521566a8bae8d24269d94ccae4faea08e291aec579f7de90610887908d908c906119ad565b60405180910390a350979650505050505050565b60025460009083106108bf5760405162461bcd60e51b8152600401610395906117ee565b600283815481106108d2576108d261181d565b90600052602060002090600c0201600a0160008381526020019081526020016000205490505b92915050565b6109066112ef565b60025483106109275760405162461bcd60e51b8152600401610395906117ee565b60006002848154811061093c5761093c61181d565b90600052602060002090600c020190508060030154421061099f5760405162461bcd60e51b815260206004820152601a60248201527f50726564696374696f6e20646561646c696e65207061737365640000000000006044820152606401610395565b600581015460ff16156109f45760405162461bcd60e51b815260206004820152601b60248201527f50726564696374696f6e20616c7265616479207265736f6c76656400000000006044820152606401610395565b60008211610a505760405162461bcd60e51b815260206004820152602360248201527f5374616b6520616d6f756e74206d75737420626520677265617465722074686160448201526206e20360ec1b6064820152608401610395565b600154610a68906001600160a01b0316333085611319565b6000838152600a8201602052604081208054849290610a889084906119e5565b9091555050336000908152600b82016020908152604080832086845290915281208054849290610ab99084906119e5565b9250508190555081816004016000828254610ad491906119e5565b90915550506040805184815260208101849052339186917f7329ebc4051de8d1fe90d55a57a2945417b7e202f9ff443f3437c336c630611b910160405180910390a350610b216001600055565b505050565b610b2e6112ef565b6002548110610b4f5760405162461bcd60e51b8152600401610395906117ee565b600060028281548110610b6457610b6461181d565b60009182526020909120600c90910201600581015490915060ff16610bcb5760405162461bcd60e51b815260206004820152601760248201527f50726564696374696f6e206e6f74207265736f6c7665640000000000000000006044820152606401610395565b336000908152600b8201602090815260408083206006850154845290915290205480610c395760405162461bcd60e51b815260206004820152601a60248201527f4e6f207374616b6520696e2077696e6e696e67206f7074696f6e0000000000006044820152606401610395565b60068201546000908152600a8301602052604090205480610c9c5760405162461bcd60e51b815260206004820152601b60248201527f4e6f207374616b6573206f6e2077696e6e696e67206f7074696f6e00000000006044820152606401610395565b600081846004015484610caf91906119f8565b610cb99190611a0f565b336000818152600b87016020908152604080832060068a01548452909152812055600154919250610cf4916001600160a01b03169083611386565b604051818152339086907f24b5efa61dd1cfc659205a97fb8ed868f3cb8c81922bab2b96423e5de1de2cb79060200160405180910390a350505050610d396001600055565b50565b6002546000908410610d605760405162461bcd60e51b8152600401610395906117ee565b60028481548110610d7357610d7361181d565b600091825260208083206001600160a01b0387168452600b600c90930201919091018152604080832085845290915290205490505b9392505050565b6000428211610e005760405162461bcd60e51b815260206004820152601e60248201527f446561646c696e65206d75737420626520696e207468652066757475726500006044820152606401610395565b6000845111610e495760405162461bcd60e51b81526020600482015260156024820152745469746c652063616e6e6f7420626520656d70747960581b6044820152606401610395565b60028054600181018255600091909152600c81027f405787fa12a823e0f2b7631cc41b3ba8828b3321ca811111fa75cd3aa3bb5ace810180546001600160a01b03191633178155907f405787fa12a823e0f2b7631cc41b3ba8828b3321ca811111fa75cd3aa3bb5acf01610ebd87826118ed565b5060028101610ecc86826118ed565b506003810184905560058101805460ff199081169091556007820180546001600160a01b0319169055600060088301556009820180549091169055604051339083907fc987cddf87b5c39d61521566a8bae8d24269d94ccae4faea08e291aec579f7de90610f3d908a9089906119ad565b60405180910390a350949350505050565b60006060806000806000806002805490508810610f7d5760405162461bcd60e51b8152600401610395906117ee565b600060028981548110610f9257610f9261181d565b60009182526020909120600c90910201805460038201546004830154600584015460068501546001860180549697506001600160a01b03909516956002880194939260ff1691908690610fe4906117b4565b80601f0160208091040260200160405190810160405280929190818152602001828054611010906117b4565b801561105d5780601f106110325761010080835404028352916020019161105d565b820191906000526020600020905b81548152906001019060200180831161104057829003601f168201915b50505050509550848054611070906117b4565b80601f016020809104026020016040519081016040528092919081815260200182805461109c906117b4565b80156110e95780601f106110be576101008083540402835291602001916110e9565b820191906000526020600020905b8154815290600101906020018083116110cc57829003601f168201915b50505050509450975097509750975097509750975050919395979092949650565b600254821061112b5760405162461bcd60e51b8152600401610395906117ee565b6000600283815481106111405761114061181d565b60009182526020909120600c9091020180549091506001600160a01b031633146111a75760405162461bcd60e51b81526020600482015260186024820152774f6e6c792063726561746f722063616e207265736f6c766560401b6044820152606401610395565b80600301544210156111f25760405162461bcd60e51b8152602060048201526014602482015273111958591b1a5b99481b9bdd081c995858da195960621b6044820152606401610395565b600581015460ff161561123a5760405162461bcd60e51b815260206004820152601060248201526f105b1c9958591e481c995cdbdb1d995960821b6044820152606401610395565b60058101805460ff191660011790556006810182905560405183907fe0d11dcca65d89777e74a05aabfc99281a4c018644b33af1b397a7dbf5e2911b906112849085815260200190565b60405180910390a2505050565b60008160ff166000036112a8575081831315610da8565b8160ff166001036112bc5750818312610da8565b8160ff166002036112d1575081831215610da8565b8160ff166003036112e55750818313610da8565b5060009392505050565b60026000540361131257604051633ee5aeb560e01b815260040160405180910390fd5b6002600055565b6040516001600160a01b0384811660248301528381166044830152606482018390526113809186918216906323b872dd906084015b604051602081830303815290604052915060e01b6020820180516001600160e01b0383818316178352505050506113b7565b50505050565b6040516001600160a01b03838116602483015260448201839052610b2191859182169063a9059cbb9060640161134e565b600080602060008451602086016000885af1806113da576040513d6000823e3d81fd5b50506000513d915081156113f25780600114156113ff565b6001600160a01b0384163b155b1561138057604051635274afe760e01b81526001600160a01b0385166004820152602401610395565b60006020828403121561143a57600080fd5b5035919050565b6000815180845260005b818110156114675760208185018101518683018201520161144b565b506000602082860101526020601f19601f83011685010191505092915050565b6001600160a01b038b81168252610140602083018190526000916114ad8483018e611441565b915083820360408501526114c1828d611441565b92508a606085015289608085015288151560a08501528760c085015280871660e085015250508361010083015260ff83166101208301529b9a5050505050505050505050565b634e487b7160e01b600052604160045260246000fd5b600082601f83011261152e57600080fd5b813567ffffffffffffffff8082111561154957611549611507565b604051601f8301601f19908116603f0116810190828211818310171561157157611571611507565b8160405283815286602085880101111561158a57600080fd5b836020870160208301376000602085830101528094505050505092915050565b80356001600160a01b03811681146115c157600080fd5b919050565b60008060008060008060c087890312156115df57600080fd5b863567ffffffffffffffff808211156115f757600080fd5b6116038a838b0161151d565b9750602089013591508082111561161957600080fd5b5061162689828a0161151d565b9550506040870135935061163c606088016115aa565b92506080870135915060a087013560ff8116811461165957600080fd5b809150509295509295509295565b6000806040838503121561167a57600080fd5b50508035926020909101359150565b60008060006060848603121561169e57600080fd5b505081359360208301359350604090920135919050565b6000806000606084860312156116ca57600080fd5b833592506116da602085016115aa565b9150604084013590509250925092565b6000806000606084860312156116ff57600080fd5b833567ffffffffffffffff8082111561171757600080fd5b6117238783880161151d565b9450602086013591508082111561173957600080fd5b506117468682870161151d565b925050604084013590509250925092565b6001600160a01b038816815260e06020820181905260009061177b90830189611441565b828103604084015261178d8189611441565b60608401979097525050608081019390935290151560a083015260c0909101529392505050565b600181811c908216806117c857607f821691505b6020821081036117e857634e487b7160e01b600052602260045260246000fd5b50919050565b602080825260159082015274125b9d985b1a59081c1c99591a58dd1a5bdb881251605a1b604082015260600190565b634e487b7160e01b600052603260045260246000fd5b805169ffffffffffffffffffff811681146115c157600080fd5b600080600080600060a0868803121561186557600080fd5b61186e86611833565b945060208601519350604086015192506060860151915061189160808701611833565b90509295509295909350565b601f821115610b21576000816000526020600020601f850160051c810160208610156118c65750805b601f850160051c820191505b818110156118e5578281556001016118d2565b505050505050565b815167ffffffffffffffff81111561190757611907611507565b61191b8161191584546117b4565b8461189d565b602080601f83116001811461195057600084156119385750858301515b600019600386901b1c1916600185901b1785556118e5565b600085815260208120601f198616915b8281101561197f57888601518255948401946001909101908401611960565b508582101561199d5787850151600019600388901b60f8161c191681555b5050505050600190811b01905550565b6040815260006119c06040830185611441565b90508260208301529392505050565b634e487b7160e01b600052601160045260246000fd5b808201808211156108f8576108f86119cf565b80820281158282048414176108f8576108f86119cf565b600082611a2c57634e487b7160e01b600052601260045260246000fd5b50049056fea2646970667358221220fcc0594b4280926c8ec3b3a9ab6d747221cc316c07f93a5069d4d48b741bbcca64736f6c63430008180033",
  "linkReferences": {},
  "deployedLinkReferences": {}
}