{
  "_format": "hh-sol-artifact-1",
  "contractName": "MarketFactory",
  "sourceName": "contracts/MarketFactory.sol",
  "abi": [
    {
      "inputs": [
        {
          "internalType": "address",
          "name": "admin",
          "type": "address"
        }
      ],
      "stateMutability": "nonpayable",
      "type": "constructor"
    },
    {
      "inputs": [],
      "name": "AccessControlBadConfirmation",
      "type": "error"
    },
    {
      "inputs": [
        {
          "internalType": "address",
          "name": "account",
          "type": "address"
        },
        {
          "internalType": "bytes32",
          "name": "neededRole",
          "type": "bytes32"
        }
      ],
      "name": "AccessControlUnauthorizedAccount",
      "type": "error"
    },
    {
      "inputs": [],
      "name": "FailedDeployment",
      "type": "error"
    },
    {
      "inputs": [
        {
          "internalType": "uint256",
          "name": "balance",
          "type": "uint256"
        },
        {
          "internalType": "uint256",
          "name": "needed",
          "type": "uint256"
        }
      ],
      "name": "InsufficientBalance",
      "type": "error"
    },
    {
      "anonymous": false,
      "inputs": [
        {
          "indexed": true,
          "internalType": "uint256",
          "name": "marketId",
          "type": "uint256"
        },
        {
          "indexed": true,
          "internalType": "address",
          "name": "market",
          "type": "address"
        },
        {
          "indexed": true,
          "internalType": "bytes32",
          "name": "templateId",
          "type": "bytes32"
        },
        {
          "indexed": false,
          "internalType": "address",
          "name": "creator",
          "type": "address"
        },
        {
          "indexed": false,
          "internalType": "address",
          "name": "collateralToken",
          "type": "address"
        },
        {
          "indexed": false,
          "internalType": "address",
          "name": "oracle",
          "type": "address"
        },
        {
          "indexed": false,
          "internalType": "uint256",
          "name": "feeBps",
          "type": "uint256"
        },
        {
          "indexed": false,
          "internalType": "uint256",
          "name": "resolutionTime",
          "type": "uint256"
        }
      ],
      "name": "MarketCreated",
      "type": "event"
    },
    {
      "anonymous": false,
      "inputs": [
        {
          "indexed": true,
          "internalType": "bytes32",
          "name": "role",
          "type": "bytes32"
        },
        {
          "indexed": true,
          "internalType": "bytes32",
          "name": "previousAdminRole",
          "type": "bytes32"
        },
        {
          "indexed": true,
          "internalType": "bytes32",
          "name": "newAdminRole",
          "type": "bytes32"
        }
      ],
      "name": "RoleAdminChanged",
      "type": "event"
    },
    {
      "anonymous": false,
      "inputs": [
        {
          "indexed": true,
          "internalType": "bytes32",
          "name": "role",
          "type": "bytes32"
        },
        {
          "indexed": true,
          "internalType": "address",
          "name": "account",
          "type": "address"
        },
        {
          "indexed": true,
          "internalType": "address",
          "name": "sender",
          "type": "address"
        }
      ],
      "name": "RoleGranted",
      "type": "event"
    },
    {
      "anonymous": false,
      "inputs": [
        {
          "indexed": true,
          "internalType": "bytes32",
          "name": "role",
          "type": "bytes32"
        },
        {
          "indexed": true,
          "internalType": "address",
          "name": "account",
          "type": "address"
        },
        {
          "indexed": true,
          "internalType": "address",
          "name": "sender",
          "type": "address"
        }
      ],
      "name": "RoleRevoked",
      "type": "event"
    },
    {
      "anonymous": false,
      "inputs": [
        {
          "indexed": true,
          "internalType": "bytes32",
          "name": "templateId",
          "type": "bytes32"
        },
        {
          "indexed": false,
          "internalType": "address",
          "name": "implementation",
          "type": "address"
        },
        {
          "indexed": false,
          "internalType": "string",
          "name": "name",
          "type": "string"
        }
      ],
      "name": "TemplateRegistered",
      "type": "event"
    },
    {
      "anonymous": false,
      "inputs": [
        {
          "indexed": true,
          "internalType": "bytes32",
          "name": "templateId",
          "type": "bytes32"
        }
      ],
      "name": "TemplateRemoved",
      "type": "event"
    },
    {
      "inputs": [],
      "name": "ADMIN_ROLE",
      "outputs": [
        {
          "internalType": "bytes32",
          "name": "",
          "type": "bytes32"
        }
      ],
      "stateMutability": "view",
      "type": "function"
    },
    {
      "inputs": [],
      "name": "DEFAULT_ADMIN_ROLE",
      "outputs": [
        {
          "internalType": "bytes32",
          "name": "",
          "type": "bytes32"
        }
      ],
      "stateMutability": "view",
      "type": "function"
    },
    {
      "inputs": [
        {
          "internalType": "bytes32",
          "name": "templateId",
          "type": "bytes32"
        },
        {
          "internalType": "address",
          "name": "collateralToken",
          "type": "address"
        },
        {
          "internalType": "address",
          "name": "oracle",
          "type": "address"
        },
        {
          "internalType": "uint256",
          "name": "feeBps",
          "type": "uint256"
        },
        {
          "internalType": "uint256",
          "name": "resolutionTime",
          "type": "uint256"
        },
        {
          "internalType": "bytes",
          "name": "data",
          "type": "bytes"
        }
      ],
      "name": "createMarket",
      "outputs": [
        {
          "internalType": "address",
          "name": "market",
          "type": "address"
        },
        {
          "internalType": "uint256",
          "name": "marketId",
          "type": "uint256"
        }
      ],
      "stateMutability": "nonpayable",
      "type": "function"
    },
    {
      "inputs": [
        {
          "internalType": "bytes32",
          "name": "role",
          "type": "bytes32"
        }
      ],
      "name": "getRoleAdmin",
      "outputs": [
        {
          "internalType": "bytes32",
          "name": "",
          "type": "bytes32"
        }
      ],
      "stateMutability": "view",
      "type": "function"
    },
    {
      "inputs": [
        {
          "internalType": "bytes32",
          "name": "templateId",
          "type": "bytes32"
        }
      ],
      "name": "getTemplate",
      "outputs": [
        {
          "components": [
            {
              "internalType": "address",
              "name": "implementation",
              "type": "address"
            },
            {
              "internalType": "bool",
              "name": "exists",
              "type": "bool"
            },
            {
              "internalType": "string",
              "name": "name",
              "type": "string"
            }
          ],
          "internalType": "struct MarketFactory.Template",
          "name": "",
          "type": "tuple"
        }
      ],
      "stateMutability": "view",
      "type": "function"
    },
    {
      "inputs": [
        {
          "internalType": "bytes32",
          "name": "role",
          "type": "bytes32"
        },
        {
          "internalType": "address",
          "name": "account",
          "type": "address"
        }
      ],
      "name": "grantRole",
      "outputs": [],
      "stateMutability": "nonpayable",
      "type": "function"
    },
    {
      "inputs": [
        {
          "internalType": "bytes32",
          "name": "role",
          "type": "bytes32"
        },
        {
          "internalType": "address",
          "name": "account",
          "type": "address"
        }
      ],
      "name": "hasRole",
      "outputs": [
        {
          "internalType": "bool",
          "name": "",
          "type": "bool"
        }
      ],
      "stateMutability": "view",
      "type": "function"
    },
    {
      "inputs": [
        {
          "internalType": "address",
          "name": "",
          "type": "address"
        }
      ],
      "name": "isMarketFromFactory",
      "outputs": [
        {
          "internalType": "bool",
          "name": "",
          "type": "bool"
        }
      ],
      "stateMutability": "view",
      "type": "function"
    },
    {
      "inputs": [],
      "name": "marketCount",
      "outputs": [
        {
          "internalType": "uint256",
          "name": "",
          "type": "uint256"
        }
      ],
      "stateMutability": "view",
      "type": "function"
    },
    {
      "inputs": [
        {
          "internalType": "uint256",
          "name": "",
          "type": "uint256"
        }
      ],
      "name": "markets",
      "outputs": [
        {
          "internalType": "address",
          "name": "market",
          "type": "address"
        },
        {
          "internalType": "bytes32",
          "name": "templateId",
          "type": "bytes32"
        },
        {
          "internalType": "address",
          "name": "creator",
          "type": "address"
        },
        {
          "internalType": "address",
          "name": "collateralToken",
          "type": "address"
        },
        {
          "internalType": "address",
          "name": "oracle",
          "type": "address"
        },
        {
          "internalType": "uint256",
          "name": "feeBps",
          "type": "uint256"
        },
        {
          "internalType": "uint256",
          "name": "resolutionTime",
          "type": "uint256"
        }
      ],
      "stateMutability": "view",
      "type": "function"
    },
    {
      "inputs": [
        {
          "internalType": "bytes32",
          "name": "templateId",
          "type": "bytes32"
        },
        {
          "internalType": "address",
          "name": "implementation",
          "type": "address"
        },
        {
          "internalType": "string",
          "name": "name",
          "type": "string"
        }
      ],
      "name": "registerTemplate",
      "outputs": [],
      "stateMutability": "nonpayable",
      "type": "function"
    },
    {
      "inputs": [
        {
          "internalType": "bytes32",
          "name": "templateId",
          "type": "bytes32"
        }
      ],
      "name": "removeTemplate",
      "outputs": [],
      "stateMutability": "nonpayable",
      "type": "function"
    },
    {
      "inputs": [
        {
          "internalType": "bytes32",
          "name": "role",
          "type": "bytes32"
        },
        {
          "internalType": "address",
          "name": "callerConfirmation",
          "type": "address"
        }
      ],
      "name": "renounceRole",
      "outputs": [],
      "stateMutability": "nonpayable",
      "type": "function"
    },
    {
      "inputs": [
        {
          "internalType": "bytes32",
          "name": "role",
          "type": "bytes32"
        },
        {
          "internalType": "address",
          "name": "account",
          "type": "address"
        }
      ],
      "name": "revokeRole",
      "outputs": [],
      "stateMutability": "nonpayable",
      "type": "function"
    },
    {
      "inputs": [
        {
          "internalType": "bytes4",
          "name": "interfaceId",
          "type": "bytes4"
        }
      ],
      "name": "supportsInterface",
      "outputs": [
        {
          "internalType": "bool",
          "name": "",
          "type": "bool"
        }
      ],
      "stateMutability": "view",
      "type": "function"
    },
    {
      "inputs": [
        {
          "internalType": "bytes32",
          "name": "",
          "type": "bytes32"
        }
      ],
      "name": "templates",
      "outputs": [
        {
          "internalType": "address",
          "name": "implementation",
          "type": "address"
        },
        {
          "internalType": "bool",
          "name": "exists",
          "type": "bool"
        },
        {
          "internalType": "string",
          "name": "name",
          "type": "string"
        }
      ],
      "stateMutability": "view",
      "type": "function"
    }
  ],
  "bytecode": "0x608060405234801561001057600080fd5b50604051620014d3380380620014d383398101604081905261003191610133565b6001600160a01b0381166100755760405162461bcd60e51b8152602060048201526007602482015266061646d696e3d360cc1b604482015260640160405180910390fd5b610080600082610087565b5050610163565b6000828152602081815260408083206001600160a01b038516845290915281205460ff16610129576000838152602081815260408083206001600160a01b03861684529091529020805460ff191660011790556100e13390565b6001600160a01b0316826001600160a01b0316847f2f8788117e7eff1d82e926ec794901d17c78024a50270940304540a733656f0d60405160405180910390a450600161012d565b5060005b92915050565b60006020828403121561014557600080fd5b81516001600160a01b038116811461015c57600080fd5b9392505050565b61136080620001736000396000f3fe608060405234801561001057600080fd5b50600436106101005760003560e01c806375b238fc11610097578063a217fddf11610066578063a217fddf146101f1578063b1283e771461025e578063d547741f14610306578063ec9790821461031957600080fd5b806375b238fc146101f157806376987038146101f957806391d148541461022b5780639757739b1461023e57600080fd5b806336568abe116100d357806336568abe1461019557806347e09a0b146101a85780635f56d421146101bb57806364f5220a146101ce57600080fd5b806301ffc9a7146101055780630a6315761461012d578063248a9ca31461014f5780632f2ff15d14610180575b600080fd5b610118610113366004610e6e565b610322565b60405190151581526020015b60405180910390f35b61014061013b366004610e9f565b610359565b60405161012493929190610efe565b61017261015d366004610e9f565b60009081526020819052604090206001015490565b604051908152602001610124565b61019361018e366004610f4f565b610415565b005b6101936101a3366004610f4f565b610440565b6101936101b6366004610e9f565b610478565b6101936101c9366004610fc4565b61053c565b6101186101dc36600461101e565b60046020526000908152604090205460ff1681565b610172600081565b61020c610207366004611039565b6106b6565b604080516001600160a01b039093168352602083019190915201610124565b610118610239366004610f4f565b610af5565b61025161024c366004610e9f565b610b1e565b60405161012491906110bb565b6102bb61026c366004610e9f565b600360208190526000918252604090912080546001820154600283015493830154600484015460058501546006909501546001600160a01b039485169693959385169492831693919092169187565b604080516001600160a01b0398891681526020810197909752948716948601949094529185166060850152909316608083015260a082019290925260c081019190915260e001610124565b610193610314366004610f4f565b610c11565b61017260025481565b60006001600160e01b03198216637965db0b60e01b148061035357506301ffc9a760e01b6001600160e01b03198316145b92915050565b6001602081905260009182526040909120805491810180546001600160a01b03841693600160a01b900460ff16929190610392906110fc565b80601f01602080910402602001604051908101604052809291908181526020018280546103be906110fc565b801561040b5780601f106103e05761010080835404028352916020019161040b565b820191906000526020600020905b8154815290600101906020018083116103ee57829003601f168201915b5050505050905083565b60008281526020819052604090206001015461043081610c36565b61043a8383610c43565b50505050565b6001600160a01b03811633146104695760405163334bd91960e11b815260040160405180910390fd5b6104738282610cd5565b505050565b600061048381610c36565b600082815260016020526040902054600160a01b900460ff166104df5760405162461bcd60e51b815260206004820152600f60248201526e74656d706c6174652165786973747360881b60448201526064015b60405180910390fd5b6000828152600160208190526040822080546001600160a81b0319168155919061050b90830182610e20565b505060405182907f2a01ae87ab71e45845210573fade1f31e5ab66dec0078b7e7f6afcc2bb40f56590600090a25050565b600061054781610c36565b846105835760405162461bcd60e51b815260206004820152600c60248201526b074656d706c61746549643d360a41b60448201526064016104d6565b6001600160a01b0384166105c25760405162461bcd60e51b81526020600482015260066024820152650696d706c3d360d41b60448201526064016104d6565b6040518060600160405280856001600160a01b0316815260200160011515815260200184848080601f01602080910402602001604051908101604052809392919081815260200183838082843760009201829052509390945250508781526001602081815260409283902085518154928701511515600160a01b026001600160a81b03199093166001600160a01b03909116179190911781559184015191925082019061066f908261119c565b50905050847fdf8c704cbfe00be11e545996b402a548fff281dd8f561b011196508e0547bbf18585856040516106a793929190611285565b60405180910390a25050505050565b6000878152600160208181526040808420815160608101835281546001600160a01b0381168252600160a01b900460ff1615159381019390935292830180548594859493909290840191610709906110fc565b80601f0160208091040260200160405190810160405280929190818152602001828054610735906110fc565b80156107825780601f1061075757610100808354040283529160200191610782565b820191906000526020600020905b81548152906001019060200180831161076557829003601f168201915b505050505081525050905080602001516107d15760405162461bcd60e51b815260206004820152601060248201526f74656d706c617465206d697373696e6760801b60448201526064016104d6565b6001600160a01b0389166108165760405162461bcd60e51b815260206004820152600c60248201526b0636f6c6c61746572616c3d360a41b60448201526064016104d6565b6001600160a01b0388166108575760405162461bcd60e51b815260206004820152600860248201526706f7261636c653d360c41b60448201526064016104d6565b805161086b906001600160a01b0316610d40565b60405163736ee38d60e11b81529093506001600160a01b0384169063e6ddc71a906108a890309033908e908e908e908e908e908e906004016112aa565b600060405180830381600087803b1580156108c257600080fd5b505af11580156108d6573d6000803e3d6000fd5b505050506002600081546108e990611303565b91905081905591506040518060e00160405280846001600160a01b031681526020018b8152602001336001600160a01b031681526020018a6001600160a01b03168152602001896001600160a01b03168152602001888152602001878152506003600084815260200190815260200160002060008201518160000160006101000a8154816001600160a01b0302191690836001600160a01b031602179055506020820151816001015560408201518160020160006101000a8154816001600160a01b0302191690836001600160a01b0316021790555060608201518160030160006101000a8154816001600160a01b0302191690836001600160a01b0316021790555060808201518160040160006101000a8154816001600160a01b0302191690836001600160a01b0316021790555060a0820151816005015560c08201518160060155905050600160046000856001600160a01b03166001600160a01b0316815260200190815260200160002060006101000a81548160ff02191690831515021790555089836001600160a01b0316837f89566e374b76e70cf82798b9db348aad8dfe87a457e7c996686df33e3255bdc7338d8d8d8d604051610ae09594939291906001600160a01b03958616815293851660208501529190931660408301526060820192909252608081019190915260a00190565b60405180910390a45097509795505050505050565b6000918252602082815260408084206001600160a01b0393909316845291905290205460ff1690565b60408051606080820183526000808352602083015291810191909152600082815260016020818152604092839020835160608101855281546001600160a01b0381168252600160a01b900460ff1615159281019290925291820180549193840191610b88906110fc565b80601f0160208091040260200160405190810160405280929190818152602001828054610bb4906110fc565b8015610c015780601f10610bd657610100808354040283529160200191610c01565b820191906000526020600020905b815481529060010190602001808311610be457829003601f168201915b5050505050815250509050919050565b600082815260208190526040902060010154610c2c81610c36565b61043a8383610cd5565b610c408133610d4d565b50565b6000610c4f8383610af5565b610ccd576000838152602081815260408083206001600160a01b03861684529091529020805460ff19166001179055610c853390565b6001600160a01b0316826001600160a01b0316847f2f8788117e7eff1d82e926ec794901d17c78024a50270940304540a733656f0d60405160405180910390a4506001610353565b506000610353565b6000610ce18383610af5565b15610ccd576000838152602081815260408083206001600160a01b0386168085529252808320805460ff1916905551339286917ff6391f5c32d9c69d2a47ea670b442974b53935d1edc7fd64eb21e047a839171b9190a4506001610353565b6000610353826000610d8a565b610d578282610af5565b610d865760405163e2517d3f60e01b81526001600160a01b0382166004820152602481018390526044016104d6565b5050565b600081471015610db65760405163cf47918160e01b8152476004820152602481018390526044016104d6565b763d602d80600a3d3981f3363d3d373d3d3d363d730000008360601b60e81c176000526e5af43d82803e903d91602b57fd5bf38360781b176020526037600983f090506001600160a01b0381166103535760405163b06ebf3d60e01b815260040160405180910390fd5b508054610e2c906110fc565b6000825580601f10610e3c575050565b601f016020900490600052602060002090810190610c4091905b80821115610e6a5760008155600101610e56565b5090565b600060208284031215610e8057600080fd5b81356001600160e01b031981168114610e9857600080fd5b9392505050565b600060208284031215610eb157600080fd5b5035919050565b6000815180845260005b81811015610ede57602081850181015186830182015201610ec2565b506000602082860101526020601f19601f83011685010191505092915050565b6001600160a01b03841681528215156020820152606060408201819052600090610f2a90830184610eb8565b95945050505050565b80356001600160a01b0381168114610f4a57600080fd5b919050565b60008060408385031215610f6257600080fd5b82359150610f7260208401610f33565b90509250929050565b60008083601f840112610f8d57600080fd5b50813567ffffffffffffffff811115610fa557600080fd5b602083019150836020828501011115610fbd57600080fd5b9250929050565b60008060008060608587031215610fda57600080fd5b84359350610fea60208601610f33565b9250604085013567ffffffffffffffff81111561100657600080fd5b61101287828801610f7b565b95989497509550505050565b60006020828403121561103057600080fd5b610e9882610f33565b600080600080600080600060c0888a03121561105457600080fd5b8735965061106460208901610f33565b955061107260408901610f33565b9450606088013593506080880135925060a088013567ffffffffffffffff81111561109c57600080fd5b6110a88a828b01610f7b565b989b979a50959850939692959293505050565b6020815260018060a01b038251166020820152602082015115156040820152600060408301516060808401526110f46080840182610eb8565b949350505050565b600181811c9082168061111057607f821691505b60208210810361113057634e487b7160e01b600052602260045260246000fd5b50919050565b634e487b7160e01b600052604160045260246000fd5b601f821115610473576000816000526020600020601f850160051c810160208610156111755750805b601f850160051c820191505b8181101561119457828155600101611181565b505050505050565b815167ffffffffffffffff8111156111b6576111b6611136565b6111ca816111c484546110fc565b8461114c565b602080601f8311600181146111ff57600084156111e75750858301515b600019600386901b1c1916600185901b178555611194565b600085815260208120601f198616915b8281101561122e5788860151825594840194600190910190840161120f565b508582101561124c5787850151600019600388901b60f8161c191681555b5050505050600190811b01905550565b81835281816020850137506000828201602090810191909152601f909101601f19169091010190565b6001600160a01b0384168152604060208201819052600090610f2a908301848661125c565b6001600160a01b03898116825288811660208301528781166040830152861660608201526080810185905260a0810184905260e060c082018190526000906112f5908301848661125c565b9a9950505050505050505050565b60006001820161132357634e487b7160e01b600052601160045260246000fd5b506001019056fea264697066735822122026d86bb7fc93c7a7779060441db06c276d435aa75edeed2f1256fe8c53c076a064736f6c63430008180033",
  "linkReferences": {},
  "deployedLinkReferences": {}
}