{
  "_format": "hh-sol-artifact-1",
  "contractName": "MultiOutcomeMarket1155",
  "sourceName": "contracts/templates/MultiOutcomeMarket1155.sol",
  "abi": [
    {
      "inputs": [],
      "name": "AccessControlBadConfirmation",
      "type": "error"
    },
    {
      "inputs": [
        {
          "internalType": "address",
          "name": "account",
          "type": "address"
        },
        {
          "internalType": "bytes32",
          "name": "neededRole",
          "type": "bytes32"
        }
      ],
      "name": "AccessControlUnauthorizedAccount",
      "type": "error"
    },
    {
      "inputs": [],
      "name": "ReentrancyGuardReentrantCall",
      "type": "error"
    },
    {
      "anonymous": false,
      "inputs": [
        {
          "indexed": true,
          "internalType": "address",
          "name": "user",
          "type": "address"
        },
        {
          "indexed": false,
          "internalType": "uint256",
          "name": "collateralIn",
          "type": "uint256"
        },
        {
          "indexed": false,
          "internalType": "uint256[]",
          "name": "mintedPerOutcome",
          "type": "uint256[]"
        }
      ],
      "name": "DepositCompleteSet",
      "type": "event"
    },
    {
      "anonymous": false,
      "inputs": [
        {
          "indexed": true,
          "internalType": "address",
          "name": "oldRecipient",
          "type": "address"
        },
        {
          "indexed": true,
          "internalType": "address",
          "name": "newRecipient",
          "type": "address"
        }
      ],
      "name": "FeeRecipientUpdated",
      "type": "event"
    },
    {
      "anonymous": false,
      "inputs": [
        {
          "indexed": true,
          "internalType": "address",
          "name": "to",
          "type": "address"
        },
        {
          "indexed": false,
          "internalType": "uint256",
          "name": "amount",
          "type": "uint256"
        }
      ],
      "name": "FeesWithdrawn",
      "type": "event"
    },
    {
      "anonymous": false,
      "inputs": [
        {
          "indexed": false,
          "internalType": "int256",
          "name": "outcome",
          "type": "int256"
        }
      ],
      "name": "Finalized",
      "type": "event"
    },
    {
      "anonymous": false,
      "inputs": [
        {
          "indexed": false,
          "internalType": "address",
          "name": "factory",
          "type": "address"
        },
        {
          "indexed": false,
          "internalType": "address",
          "name": "creator",
          "type": "address"
        },
        {
          "indexed": false,
          "internalType": "address",
          "name": "collateral",
          "type": "address"
        },
        {
          "indexed": false,
          "internalType": "address",
          "name": "oracle",
          "type": "address"
        },
        {
          "indexed": false,
          "internalType": "uint256",
          "name": "feeBps",
          "type": "uint256"
        },
        {
          "indexed": false,
          "internalType": "uint256",
          "name": "resolutionTime",
          "type": "uint256"
        },
        {
          "indexed": false,
          "internalType": "address",
          "name": "outcome1155",
          "type": "address"
        },
        {
          "indexed": false,
          "internalType": "uint256",
          "name": "outcomeCount",
          "type": "uint256"
        }
      ],
      "name": "Initialized",
      "type": "event"
    },
    {
      "anonymous": false,
      "inputs": [],
      "name": "MarketCanceled",
      "type": "event"
    },
    {
      "anonymous": false,
      "inputs": [
        {
          "indexed": true,
          "internalType": "address",
          "name": "user",
          "type": "address"
        },
        {
          "indexed": false,
          "internalType": "int256",
          "name": "outcome",
          "type": "int256"
        },
        {
          "indexed": false,
          "internalType": "uint256",
          "name": "tokenBurned",
          "type": "uint256"
        },
        {
          "indexed": false,
          "internalType": "uint256",
          "name": "collateralOut",
          "type": "uint256"
        }
      ],
      "name": "Redeem",
      "type": "event"
    },
    {
      "anonymous": false,
      "inputs": [
        {
          "indexed": true,
          "internalType": "bytes32",
          "name": "role",
          "type": "bytes32"
        },
        {
          "indexed": true,
          "internalType": "bytes32",
          "name": "previousAdminRole",
          "type": "bytes32"
        },
        {
          "indexed": true,
          "internalType": "bytes32",
          "name": "newAdminRole",
          "type": "bytes32"
        }
      ],
      "name": "RoleAdminChanged",
      "type": "event"
    },
    {
      "anonymous": false,
      "inputs": [
        {
          "indexed": true,
          "internalType": "bytes32",
          "name": "role",
          "type": "bytes32"
        },
        {
          "indexed": true,
          "internalType": "address",
          "name": "account",
          "type": "address"
        },
        {
          "indexed": true,
          "internalType": "address",
          "name": "sender",
          "type": "address"
        }
      ],
      "name": "RoleGranted",
      "type": "event"
    },
    {
      "anonymous": false,
      "inputs": [
        {
          "indexed": true,
          "internalType": "bytes32",
          "name": "role",
          "type": "bytes32"
        },
        {
          "indexed": true,
          "internalType": "address",
          "name": "account",
          "type": "address"
        },
        {
          "indexed": true,
          "internalType": "address",
          "name": "sender",
          "type": "address"
        }
      ],
      "name": "RoleRevoked",
      "type": "event"
    },
    {
      "anonymous": false,
      "inputs": [],
      "name": "TradingStarted",
      "type": "event"
    },
    {
      "inputs": [],
      "name": "ADMIN_ROLE",
      "outputs": [
        {
          "internalType": "bytes32",
          "name": "",
          "type": "bytes32"
        }
      ],
      "stateMutability": "view",
      "type": "function"
    },
    {
      "inputs": [],
      "name": "DEFAULT_ADMIN_ROLE",
      "outputs": [
        {
          "internalType": "bytes32",
          "name": "",
          "type": "bytes32"
        }
      ],
      "stateMutability": "view",
      "type": "function"
    },
    {
      "inputs": [],
      "name": "ORACLE_ROLE",
      "outputs": [
        {
          "internalType": "bytes32",
          "name": "",
          "type": "bytes32"
        }
      ],
      "stateMutability": "view",
      "type": "function"
    },
    {
      "inputs": [],
      "name": "accruedFees",
      "outputs": [
        {
          "internalType": "uint256",
          "name": "",
          "type": "uint256"
        }
      ],
      "stateMutability": "view",
      "type": "function"
    },
    {
      "inputs": [],
      "name": "cancelMarket",
      "outputs": [],
      "stateMutability": "nonpayable",
      "type": "function"
    },
    {
      "inputs": [],
      "name": "collateral",
      "outputs": [
        {
          "internalType": "contract IERC20",
          "name": "",
          "type": "address"
        }
      ],
      "stateMutability": "view",
      "type": "function"
    },
    {
      "inputs": [],
      "name": "collateralDecimals",
      "outputs": [
        {
          "internalType": "uint8",
          "name": "",
          "type": "uint8"
        }
      ],
      "stateMutability": "view",
      "type": "function"
    },
    {
      "inputs": [],
      "name": "creator",
      "outputs": [
        {
          "internalType": "address",
          "name": "",
          "type": "address"
        }
      ],
      "stateMutability": "view",
      "type": "function"
    },
    {
      "inputs": [
        {
          "internalType": "uint256",
          "name": "collateralAmount",
          "type": "uint256"
        }
      ],
      "name": "depositCompleteSet",
      "outputs": [],
      "stateMutability": "nonpayable",
      "type": "function"
    },
    {
      "inputs": [],
      "name": "factory",
      "outputs": [
        {
          "internalType": "address",
          "name": "",
          "type": "address"
        }
      ],
      "stateMutability": "view",
      "type": "function"
    },
    {
      "inputs": [],
      "name": "feeBps",
      "outputs": [
        {
          "internalType": "uint256",
          "name": "",
          "type": "uint256"
        }
      ],
      "stateMutability": "view",
      "type": "function"
    },
    {
      "inputs": [],
      "name": "feeRecipient",
      "outputs": [
        {
          "internalType": "address",
          "name": "",
          "type": "address"
        }
      ],
      "stateMutability": "view",
      "type": "function"
    },
    {
      "inputs": [],
      "name": "finalOutcome",
      "outputs": [
        {
          "internalType": "int256",
          "name": "",
          "type": "int256"
        }
      ],
      "stateMutability": "view",
      "type": "function"
    },
    {
      "inputs": [
        {
          "internalType": "int256",
          "name": "outcomeIndex",
          "type": "int256"
        }
      ],
      "name": "finalize",
      "outputs": [],
      "stateMutability": "nonpayable",
      "type": "function"
    },
    {
      "inputs": [
        {
          "internalType": "bytes32",
          "name": "role",
          "type": "bytes32"
        }
      ],
      "name": "getRoleAdmin",
      "outputs": [
        {
          "internalType": "bytes32",
          "name": "",
          "type": "bytes32"
        }
      ],
      "stateMutability": "view",
      "type": "function"
    },
    {
      "inputs": [
        {
          "internalType": "bytes32",
          "name": "role",
          "type": "bytes32"
        },
        {
          "internalType": "address",
          "name": "account",
          "type": "address"
        }
      ],
      "name": "grantRole",
      "outputs": [],
      "stateMutability": "nonpayable",
      "type": "function"
    },
    {
      "inputs": [
        {
          "internalType": "bytes32",
          "name": "role",
          "type": "bytes32"
        },
        {
          "internalType": "address",
          "name": "account",
          "type": "address"
        }
      ],
      "name": "hasRole",
      "outputs": [
        {
          "internalType": "bool",
          "name": "",
          "type": "bool"
        }
      ],
      "stateMutability": "view",
      "type": "function"
    },
    {
      "inputs": [
        {
          "internalType": "address",
          "name": "factory_",
          "type": "address"
        },
        {
          "internalType": "address",
          "name": "creator_",
          "type": "address"
        },
        {
          "internalType": "address",
          "name": "collateralToken_",
          "type": "address"
        },
        {
          "internalType": "address",
          "name": "oracle_",
          "type": "address"
        },
        {
          "internalType": "uint256",
          "name": "feeBps_",
          "type": "uint256"
        },
        {
          "internalType": "uint256",
          "name": "resolutionTime_",
          "type": "uint256"
        },
        {
          "internalType": "bytes",
          "name": "data",
          "type": "bytes"
        }
      ],
      "name": "initialize",
      "outputs": [],
      "stateMutability": "nonpayable",
      "type": "function"
    },
    {
      "inputs": [],
      "name": "oracle",
      "outputs": [
        {
          "internalType": "address",
          "name": "",
          "type": "address"
        }
      ],
      "stateMutability": "view",
      "type": "function"
    },
    {
      "inputs": [],
      "name": "outcome1155",
      "outputs": [
        {
          "internalType": "contract OutcomeToken1155",
          "name": "",
          "type": "address"
        }
      ],
      "stateMutability": "view",
      "type": "function"
    },
    {
      "inputs": [],
      "name": "outcomeCount",
      "outputs": [
        {
          "internalType": "uint256",
          "name": "",
          "type": "uint256"
        }
      ],
      "stateMutability": "view",
      "type": "function"
    },
    {
      "inputs": [
        {
          "internalType": "uint256",
          "name": "tokenAmount",
          "type": "uint256"
        }
      ],
      "name": "redeem",
      "outputs": [],
      "stateMutability": "nonpayable",
      "type": "function"
    },
    {
      "inputs": [
        {
          "internalType": "uint256",
          "name": "amount18PerOutcome",
          "type": "uint256"
        }
      ],
      "name": "redeemCompleteSetOnCancel",
      "outputs": [],
      "stateMutability": "nonpayable",
      "type": "function"
    },
    {
      "inputs": [
        {
          "internalType": "bytes32",
          "name": "role",
          "type": "bytes32"
        },
        {
          "internalType": "address",
          "name": "callerConfirmation",
          "type": "address"
        }
      ],
      "name": "renounceRole",
      "outputs": [],
      "stateMutability": "nonpayable",
      "type": "function"
    },
    {
      "inputs": [],
      "name": "resolutionTime",
      "outputs": [
        {
          "internalType": "uint256",
          "name": "",
          "type": "uint256"
        }
      ],
      "stateMutability": "view",
      "type": "function"
    },
    {
      "inputs": [
        {
          "internalType": "bytes32",
          "name": "role",
          "type": "bytes32"
        },
        {
          "internalType": "address",
          "name": "account",
          "type": "address"
        }
      ],
      "name": "revokeRole",
      "outputs": [],
      "stateMutability": "nonpayable",
      "type": "function"
    },
    {
      "inputs": [
        {
          "internalType": "address",
          "name": "newRecipient",
          "type": "address"
        }
      ],
      "name": "setFeeRecipient",
      "outputs": [],
      "stateMutability": "nonpayable",
      "type": "function"
    },
    {
      "inputs": [],
      "name": "startTrading",
      "outputs": [],
      "stateMutability": "nonpayable",
      "type": "function"
    },
    {
      "inputs": [],
      "name": "state",
      "outputs": [
        {
          "internalType": "enum MultiOutcomeMarket1155.State",
          "name": "",
          "type": "uint8"
        }
      ],
      "stateMutability": "view",
      "type": "function"
    },
    {
      "inputs": [
        {
          "internalType": "bytes4",
          "name": "interfaceId",
          "type": "bytes4"
        }
      ],
      "name": "supportsInterface",
      "outputs": [
        {
          "internalType": "bool",
          "name": "",
          "type": "bool"
        }
      ],
      "stateMutability": "view",
      "type": "function"
    },
    {
      "inputs": [
        {
          "internalType": "uint256",
          "name": "amount",
          "type": "uint256"
        }
      ],
      "name": "withdrawFees",
      "outputs": [],
      "stateMutability": "nonpayable",
      "type": "function"
    }
  ],
  "bytecode": "0x608060405234801561001057600080fd5b50600180556121f0806100246000396000f3fe608060405234801561001057600080fd5b50600436106101e55760003560e01c806375b238fc1161010f578063d300cb31116100a2578063e6ddc71a11610071578063e6ddc71a146103fc578063e74b981b1461040f578063ec9c6c3014610422578063f3e41e901461044857600080fd5b8063d300cb31146103ba578063d547741f146103c3578063d8dfeb45146103d6578063db006a75146103e957600080fd5b8063a217fddf116100de578063a217fddf14610334578063c19d93fb14610375578063c45a01551461038f578063d25da264146103a757600080fd5b806375b238fc146103345780637dc0d1d01461033c5780637ec8bc6d1461034f57806391d148541461036257600080fd5b80632f2ff15d116101875780635e318e07116101565780635e318e07146102fd578063682c2058146103105780636bfefd6b14610319578063736ec6d61461032157600080fd5b80632f2ff15d146102bb57806336568abe146102ce578063404002a6146102e157806346904840146102ea57600080fd5b8063247587c6116101c3578063247587c614610272578063248a9ca31461028757806324a9d853146102aa578063293230b8146102b357600080fd5b806301ffc9a7146101ea57806302d05d3f1461021257806307e2cea51461023d575b600080fd5b6101fd6101f8366004611c75565b610451565b60405190151581526020015b60405180910390f35b600354610225906001600160a01b031681565b6040516001600160a01b039091168152602001610209565b6102647f68e79a7bf1e0bc45d0a330c573bc367f9cf464fd326078812f301165fbda4ef181565b604051908152602001610209565b610285610280366004611ca6565b610488565b005b610264610295366004611ca6565b60009081526020819052604090206001015490565b61026460085481565b6102856108af565b6102856102c9366004611cd4565b610944565b6102856102dc366004611cd4565b61096f565b610264600c5481565b600a54610225906001600160a01b031681565b61028561030b366004611ca6565b6109a7565b610264600b5481565b610285610b0c565b600554610225906001600160a01b031681565b610264600081565b600754610225906001600160a01b031681565b61028561035d366004611ca6565b610bc2565b6101fd610370366004611cd4565b610fe5565b6002546103829060ff1681565b6040516102099190611d1a565b6002546102259061010090046001600160a01b031681565b6102856103b5366004611ca6565b61100e565b61026460065481565b6102856103d1366004611cd4565b611199565b600454610225906001600160a01b031681565b6102856103f7366004611ca6565b6111be565b61028561040a366004611d42565b6115a7565b61028561041d366004611e12565b6119b0565b60045461043690600160a01b900460ff1681565b60405160ff9091168152602001610209565b61026460095481565b60006001600160e01b03198216637965db0b60e01b148061048257506301ffc9a760e01b6001600160e01b03198316145b92915050565b610490611a77565b600160025460ff1660038111156104a9576104a9611d04565b146104e95760405162461bcd60e51b815260206004820152600b60248201526a6e6f742074726164696e6760a81b60448201526064015b60405180910390fd5b600954421061052c5760405162461bcd60e51b815260206004820152600f60248201526e3830b9ba103932b9b7b63aba34b7b760891b60448201526064016104e0565b6000811161054c5760405162461bcd60e51b81526004016104e090611e2f565b6005546040805163d539139360e01b815290516001600160a01b03909216916391d1485491839163d5391393916004808201926020929091908290030181865afa15801561059e573d6000803e3d6000fd5b505050506040513d601f19601f820116820180604052508101906105c29190611e51565b6040516001600160e01b031960e084901b1681526004810191909152306024820152604401602060405180830381865afa158015610604573d6000803e3d6000fd5b505050506040513d601f19601f820116820180604052508101906106289190611e6a565b6106445760405162461bcd60e51b81526004016104e090611e8c565b600480546040516323b872dd60e01b81523392810192909252306024830152604482018390526001600160a01b0316906323b872dd906064016020604051808303816000875af115801561069c573d6000803e3d6000fd5b505050506040513d601f19601f820116820180604052508101906106c09190611e6a565b6107005760405162461bcd60e51b81526020600482015260116024820152701d1c985b9cd9995c919c9bdb4819985a5b607a1b60448201526064016104e0565b600061070b82611aa1565b9050600060065467ffffffffffffffff81111561072a5761072a611eb4565b604051908082528060200260200182016040528015610753578160200160208202803683370190505b509050600060065467ffffffffffffffff81111561077357610773611eb4565b60405190808252806020026020018201604052801561079c578160200160208202803683370190505b50905060005b6006548110156107f6573060201b81178382815181106107c4576107c4611eca565b602002602001018181525050838282815181106107e3576107e3611eca565b60209081029190910101526001016107a2565b5060055460405163d81d0a1560e01b81526001600160a01b039091169063d81d0a159061082b90339086908690600401611f1c565b600060405180830381600087803b15801561084557600080fd5b505af1158015610859573d6000803e3d6000fd5b50505050336001600160a01b03167f0a26eabf4550ab151f27d24a92d4f5194c868deeb4237c796a568117d04441df8583604051610898929190611f5c565b60405180910390a25050506108ac60018055565b50565b6108ba600033610fe5565b6108d65760405162461bcd60e51b81526004016104e090611f7d565b600060025460ff1660038111156108ef576108ef611d04565b1461090c5760405162461bcd60e51b81526004016104e090611fa0565b6002805460ff191660011790556040517fae0605e1224f1db54698fcd818991c4cc798fb1083fe29fd0e208a4c2fccce0f90600090a1565b60008281526020819052604090206001015461095f81611ae9565b6109698383611af3565b50505050565b6001600160a01b03811633146109985760405163334bd91960e11b815260040160405180910390fd5b6109a28282611b85565b505050565b6109b2600033610fe5565b6109ce5760405162461bcd60e51b81526004016104e090611f7d565b6000811180156109e05750600b548111155b610a195760405162461bcd60e51b815260206004820152600a60248201526918985908185b5bdd5b9d60b21b60448201526064016104e0565b80600b6000828254610a2b9190611fd9565b909155505060048054600a5460405163a9059cbb60e01b81526001600160a01b039182169381019390935260248301849052169063a9059cbb906044016020604051808303816000875af1158015610a87573d6000803e3d6000fd5b505050506040513d601f19601f82011682018060405250810190610aab9190611e6a565b610ac75760405162461bcd60e51b81526004016104e090611fec565b600a546040518281526001600160a01b03909116907fc0819c13be868895eb93e40eaceb96de976442fa1d404e5c55f14bb65a8c489a9060200160405180910390a250565b610b17600033610fe5565b610b335760405162461bcd60e51b81526004016104e090611f7d565b600060025460ff166003811115610b4c57610b4c611d04565b1480610b6e5750600160025460ff166003811115610b6c57610b6c611d04565b145b610b8a5760405162461bcd60e51b81526004016104e090611fa0565b6002805460ff191660031790556040517f4fadb7118e1d9908e38104cfc893e949500a77e88e1d2ce606bd795f61d6609490600090a1565b610bca611a77565b600360025460ff166003811115610be357610be3611d04565b14610c1f5760405162461bcd60e51b815260206004820152600c60248201526b1b9bdd0818d85b98d95b195960a21b60448201526064016104e0565b60008111610c3f5760405162461bcd60e51b81526004016104e090611e2f565b6005546040805163d539139360e01b815290516001600160a01b03909216916391d1485491839163d5391393916004808201926020929091908290030181865afa158015610c91573d6000803e3d6000fd5b505050506040513d601f19601f82011682018060405250810190610cb59190611e51565b6040516001600160e01b031960e084901b1681526004810191909152306024820152604401602060405180830381865afa158015610cf7573d6000803e3d6000fd5b505050506040513d601f19601f82011682018060405250810190610d1b9190611e6a565b610d375760405162461bcd60e51b81526004016104e090611e8c565b600060065467ffffffffffffffff811115610d5457610d54611eb4565b604051908082528060200260200182016040528015610d7d578160200160208202803683370190505b509050600060065467ffffffffffffffff811115610d9d57610d9d611eb4565b604051908082528060200260200182016040528015610dc6578160200160208202803683370190505b50905060005b600654811015610e20573060201b8117838281518110610dee57610dee611eca565b60200260200101818152505083828281518110610e0d57610e0d611eca565b6020908102919091010152600101610dcc565b50600554604051631ac8311560e21b81526001600160a01b0390911690636b20c45490610e5590339086908690600401611f1c565b600060405180830381600087803b158015610e6f57600080fd5b505af1158015610e83573d6000803e3d6000fd5b505050506000610e9284611bf0565b600480546040516370a0823160e01b8152309281019290925291925082916001600160a01b0316906370a0823190602401602060405180830381865afa158015610ee0573d6000803e3d6000fd5b505050506040513d601f19601f82011682018060405250810190610f049190611e51565b1015610f475760405162461bcd60e51b81526020600482015260126024820152711a5b9cdd59999a58da595b9d081d985d5b1d60721b60448201526064016104e0565b6004805460405163a9059cbb60e01b81523392810192909252602482018390526001600160a01b03169063a9059cbb906044016020604051808303816000875af1158015610f99573d6000803e3d6000fd5b505050506040513d601f19601f82011682018060405250810190610fbd9190611e6a565b610fd95760405162461bcd60e51b81526004016104e090611fec565b5050506108ac60018055565b6000918252602082815260408084206001600160a01b0393909316845291905290205460ff1690565b6110387f68e79a7bf1e0bc45d0a330c573bc367f9cf464fd326078812f301165fbda4ef133610fe5565b6110715760405162461bcd60e51b815260206004820152600a6024820152696e6f74206f7261636c6560b01b60448201526064016104e0565b6009544210156110af5760405162461bcd60e51b8152602060048201526009602482015268746f6f206561726c7960b81b60448201526064016104e0565b600160025460ff1660038111156110c8576110c8611d04565b14806110ea5750600060025460ff1660038111156110e8576110e8611d04565b145b6111065760405162461bcd60e51b81526004016104e090611fa0565b60008112158015611118575060065481125b6111525760405162461bcd60e51b815260206004820152600b60248201526a626164206f7574636f6d6560a81b60448201526064016104e0565b6002805460ff191681179055600c8190556040518181527f4e795aabf7556806a9e797f2e537757418d1767d71e0cbb0b08959e3e7921ce59060200160405180910390a150565b6000828152602081905260409020600101546111b481611ae9565b6109698383611b85565b6111c6611a77565b6002805460ff1660038111156111de576111de611d04565b1461121a5760405162461bcd60e51b815260206004820152600c60248201526b1b9bdd081c995cdbdb1d995960a21b60448201526064016104e0565b6000811161123a5760405162461bcd60e51b81526004016104e090611e2f565b6005546040805163d539139360e01b815290516001600160a01b03909216916391d1485491839163d5391393916004808201926020929091908290030181865afa15801561128c573d6000803e3d6000fd5b505050506040513d601f19601f820116820180604052508101906112b09190611e51565b6040516001600160e01b031960e084901b1681526004810191909152306024820152604401602060405180830381865afa1580156112f2573d6000803e3d6000fd5b505050506040513d601f19601f820116820180604052508101906113169190611e6a565b6113325760405162461bcd60e51b81526004016104e090611e8c565b6000611342600c543060201b1790565b600554604051637a94c56560e11b815233600482015260248101839052604481018590529192506001600160a01b03169063f5298aca90606401600060405180830381600087803b15801561139657600080fd5b505af11580156113aa573d6000803e3d6000fd5b5050505060006113b983611bf0565b9050600080600854116113cd5760006113e8565b612710600854836113de9190612013565b6113e8919061202a565b905060006113f68284611fd9565b905081600b600082825461140a919061204c565b9091555050600480546040516370a0823160e01b8152309281019290925282916001600160a01b03909116906370a0823190602401602060405180830381865afa15801561145c573d6000803e3d6000fd5b505050506040513d601f19601f820116820180604052508101906114809190611e51565b10156114c35760405162461bcd60e51b81526020600482015260126024820152711a5b9cdd59999a58da595b9d081d985d5b1d60721b60448201526064016104e0565b6004805460405163a9059cbb60e01b81523392810192909252602482018390526001600160a01b03169063a9059cbb906044016020604051808303816000875af1158015611515573d6000803e3d6000fd5b505050506040513d601f19601f820116820180604052508101906115399190611e6a565b6115555760405162461bcd60e51b81526004016104e090611fec565b600c546040805191825260208201879052810182905233907ff411de6b8a866871ee2a39506c82a02a48b2d32885c0442480067c0eea691fc89060600160405180910390a2505050506108ac60018055565b600d5460ff16156115e95760405162461bcd60e51b815260206004820152600c60248201526b185b1c9958591e481a5b9a5d60a21b60448201526064016104e0565b6001600160a01b0388161580159061160957506001600160a01b03871615155b6116425760405162461bcd60e51b815260206004820152600a602482015269626164206163746f727360b01b60448201526064016104e0565b6001600160a01b0386161580159061166257506001600160a01b03851615155b61169a5760405162461bcd60e51b815260206004820152600960248201526862616420616464727360b81b60448201526064016104e0565b4283116116de5760405162461bcd60e51b81526020600482015260126024820152711c995cdbdb1d5d1a5bdb881a5b881c185cdd60721b60448201526064016104e0565b6103e884111561171f5760405162461bcd60e51b815260206004820152600c60248201526b0cccaca40e8dede40d0d2ced60a31b60448201526064016104e0565b60008061172e8385018561205f565b90925090506001600160a01b0382166117795760405162461bcd60e51b815260206004820152600d60248201526c06f7574636f6d65313135353d3609c1b60448201526064016104e0565b6002811015801561178c57506101008111155b6117c95760405162461bcd60e51b815260206004820152600e60248201526d6f7574636f6d65732072616e676560901b60448201526064016104e0565b600280546001600160a01b03808d1661010002610100600160a81b031990921691909117909155600380548b83166001600160a01b03199182161790915560048054928b1692909116821781556040805163313ce56760e01b8152905163313ce567928281019260209291908290030181865afa15801561184e573d6000803e3d6000fd5b505050506040513d601f19601f82011682018060405250810190611872919061208b565b6004805460ff92909216600160a01b0260ff60a01b19909216919091179055600780546001600160a01b03808a166001600160a01b03199283161790925560088890556009879055600a80548c8416908316179055600580549285169290911691909117905560068190556118e860008a611af3565b506119137f68e79a7bf1e0bc45d0a330c573bc367f9cf464fd326078812f301165fbda4ef188611af3565b506002805460ff19908116909155600019600c55600d80549091166001179055604080516001600160a01b038c811682528b811660208301528a81168284015289811660608301526080820189905260a08201889052841660c082015260e0810183905290517f42e2da8a6e06b79940982c51903c64af718e34ddb59d962d1ae75c033661a517918190036101000190a150505050505050505050565b6119bb600033610fe5565b6119d75760405162461bcd60e51b81526004016104e090611f7d565b6001600160a01b038116611a1b5760405162461bcd60e51b815260206004820152600b60248201526a0726563697069656e743d360ac1b60448201526064016104e0565b600a546040516001600160a01b038084169216907faaebcf1bfa00580e41d966056b48521fa9f202645c86d4ddf28113e617c1b1d390600090a3600a80546001600160a01b0319166001600160a01b0392909216919091179055565b600260015403611a9a57604051633ee5aeb560e01b815260040160405180910390fd5b6002600155565b600454600090600160a01b900460ff16601203611abc575090565b600454611ad490600160a01b900460ff1660126120ae565b611adf90600a6121ab565b6104829083612013565b6108ac8133611c38565b6000611aff8383610fe5565b611b7d576000838152602081815260408083206001600160a01b03861684529091529020805460ff19166001179055611b353390565b6001600160a01b0316826001600160a01b0316847f2f8788117e7eff1d82e926ec794901d17c78024a50270940304540a733656f0d60405160405180910390a4506001610482565b506000610482565b6000611b918383610fe5565b15611b7d576000838152602081815260408083206001600160a01b0386168085529252808320805460ff1916905551339286917ff6391f5c32d9c69d2a47ea670b442974b53935d1edc7fd64eb21e047a839171b9190a4506001610482565b600454600090600160a01b900460ff16601203611c0b575090565b600454611c2390600160a01b900460ff1660126120ae565b611c2e90600a6121ab565b610482908361202a565b611c428282610fe5565b611c715760405163e2517d3f60e01b81526001600160a01b0382166004820152602481018390526044016104e0565b5050565b600060208284031215611c8757600080fd5b81356001600160e01b031981168114611c9f57600080fd5b9392505050565b600060208284031215611cb857600080fd5b5035919050565b6001600160a01b03811681146108ac57600080fd5b60008060408385031215611ce757600080fd5b823591506020830135611cf981611cbf565b809150509250929050565b634e487b7160e01b600052602160045260246000fd5b6020810160048310611d3c57634e487b7160e01b600052602160045260246000fd5b91905290565b60008060008060008060008060e0898b031215611d5e57600080fd5b8835611d6981611cbf565b97506020890135611d7981611cbf565b96506040890135611d8981611cbf565b95506060890135611d9981611cbf565b94506080890135935060a0890135925060c089013567ffffffffffffffff80821115611dc457600080fd5b818b0191508b601f830112611dd857600080fd5b813581811115611de757600080fd5b8c6020828501011115611df957600080fd5b6020830194508093505050509295985092959890939650565b600060208284031215611e2457600080fd5b8135611c9f81611cbf565b6020808252600890820152670616d6f756e743d360c41b604082015260600190565b600060208284031215611e6357600080fd5b5051919050565b600060208284031215611e7c57600080fd5b81518015158114611c9f57600080fd5b6020808252600e908201526d6e6f206d696e74657220726f6c6560901b604082015260600190565b634e487b7160e01b600052604160045260246000fd5b634e487b7160e01b600052603260045260246000fd5b60008151808452602080850194506020840160005b83811015611f1157815187529582019590820190600101611ef5565b509495945050505050565b6001600160a01b0384168152606060208201819052600090611f4090830185611ee0565b8281036040840152611f528185611ee0565b9695505050505050565b828152604060208201526000611f756040830184611ee0565b949350505050565b6020808252600990820152683737ba1030b236b4b760b91b604082015260600190565b60208082526009908201526862616420737461746560b81b604082015260600190565b634e487b7160e01b600052601160045260246000fd5b8181038181111561048257610482611fc3565b6020808252600d908201526c1d1c985b9cd9995c8819985a5b609a1b604082015260600190565b808202811582820484141761048257610482611fc3565b60008261204757634e487b7160e01b600052601260045260246000fd5b500490565b8082018082111561048257610482611fc3565b6000806040838503121561207257600080fd5b823561207d81611cbf565b946020939093013593505050565b60006020828403121561209d57600080fd5b815160ff81168114611c9f57600080fd5b60ff828116828216039081111561048257610482611fc3565b600181815b808511156121025781600019048211156120e8576120e8611fc3565b808516156120f557918102915b93841c93908002906120cc565b509250929050565b60008261211957506001610482565b8161212657506000610482565b816001811461213c576002811461214657612162565b6001915050610482565b60ff84111561215757612157611fc3565b50506001821b610482565b5060208310610133831016604e8410600b8410161715612185575081810a610482565b61218f83836120c7565b80600019048211156121a3576121a3611fc3565b029392505050565b6000611c9f60ff84168361210a56fea26469706673582212204ccd274d3e91c19799437935bc863fe16bdc83e8dc66fd0e7cd4f47f42656dc664736f6c63430008180033",
  "linkReferences": {},
  "deployedLinkReferences": {}
}